{
  "abi": [
    {
      "type": "function",
      "name": "UPGRADE_INTERFACE_VERSION",
      "inputs": [],
      "outputs": [
        {
          "name": "",
          "type": "string",
          "internalType": "string"
        }
      ],
      "stateMutability": "view"
    },
    {
      "type": "function",
      "name": "bridgeERC20",
      "inputs": [
        {
          "name": "tokenID",
          "type": "uint8",
          "internalType": "uint8"
        },
        {
          "name": "amount",
          "type": "uint256",
          "internalType": "uint256"
        },
        {
          "name": "recipientAddress",
          "type": "bytes",
          "internalType": "bytes"
        },
        {
          "name": "destinationChainID",
          "type": "uint8",
          "internalType": "uint8"
        }
      ],
      "outputs": [],
      "stateMutability": "nonpayable"
    },
    {
      "type": "function",
      "name": "bridgeERC20V2",
      "inputs": [
        {
          "name": "tokenID",
          "type": "uint8",
          "internalType": "uint8"
        },
        {
          "name": "amount",
          "type": "uint256",
          "internalType": "uint256"
        },
        {
          "name": "recipientAddress",
          "type": "bytes",
          "internalType": "bytes"
        },
        {
          "name": "destinationChainID",
          "type": "uint8",
          "internalType": "uint8"
        }
      ],
      "outputs": [],
      "stateMutability": "nonpayable"
    },
    {
      "type": "function",
      "name": "bridgeETH",
      "inputs": [
        {
          "name": "recipientAddress",
          "type": "bytes",
          "internalType": "bytes"
        },
        {
          "name": "destinationChainID",
          "type": "uint8",
          "internalType": "uint8"
        }
      ],
      "outputs": [],
      "stateMutability": "payable"
    },
    {
      "type": "function",
      "name": "bridgeETHV2",
      "inputs": [
        {
          "name": "recipientAddress",
          "type": "bytes",
          "internalType": "bytes"
        },
        {
          "name": "destinationChainID",
          "type": "uint8",
          "internalType": "uint8"
        }
      ],
      "outputs": [],
      "stateMutability": "payable"
    },
    {
      "type": "function",
      "name": "committee",
      "inputs": [],
      "outputs": [
        {
          "name": "",
          "type": "address",
          "internalType": "contract IBridgeCommittee"
        }
      ],
      "stateMutability": "view"
    },
    {
      "type": "function",
      "name": "executeEmergencyOpWithSignatures",
      "inputs": [
        {
          "name": "signatures",
          "type": "bytes[]",
          "internalType": "bytes[]"
        },
        {
          "name": "message",
          "type": "tuple",
          "internalType": "struct BridgeUtils.Message",
          "components": [
            {
              "name": "messageType",
              "type": "uint8",
              "internalType": "uint8"
            },
            {
              "name": "version",
              "type": "uint8",
              "internalType": "uint8"
            },
            {
              "name": "nonce",
              "type": "uint64",
              "internalType": "uint64"
            },
            {
              "name": "chainID",
              "type": "uint8",
              "internalType": "uint8"
            },
            {
              "name": "payload",
              "type": "bytes",
              "internalType": "bytes"
            }
          ]
        }
      ],
      "outputs": [],
      "stateMutability": "nonpayable"
    },
    {
      "type": "function",
      "name": "initialize",
      "inputs": [
        {
          "name": "_committee",
          "type": "address",
          "internalType": "address"
        },
        {
          "name": "_vault",
          "type": "address",
          "internalType": "address"
        },
        {
          "name": "_limiter",
          "type": "address",
          "internalType": "address"
        }
      ],
      "outputs": [],
      "stateMutability": "nonpayable"
    },
    {
      "type": "function",
      "name": "isTransferProcessed",
      "inputs": [
        {
          "name": "nonce",
          "type": "uint64",
          "internalType": "uint64"
        }
      ],
      "outputs": [
        {
          "name": "isProcessed",
          "type": "bool",
          "internalType": "bool"
        }
      ],
      "stateMutability": "view"
    },
    {
      "type": "function",
      "name": "limiter",
      "inputs": [],
      "outputs": [
        {
          "name": "",
          "type": "address",
          "internalType": "contract IBridgeLimiter"
        }
      ],
      "stateMutability": "view"
    },
    {
      "type": "function",
      "name": "nonces",
      "inputs": [
        {
          "name": "messageType",
          "type": "uint8",
          "internalType": "uint8"
        }
      ],
      "outputs": [
        {
          "name": "nonce",
          "type": "uint64",
          "internalType": "uint64"
        }
      ],
      "stateMutability": "view"
    },
    {
      "type": "function",
      "name": "paused",
      "inputs": [],
      "outputs": [
        {
          "name": "",
          "type": "bool",
          "internalType": "bool"
        }
      ],
      "stateMutability": "view"
    },
    {
      "type": "function",
      "name": "proxiableUUID",
      "inputs": [],
      "outputs": [
        {
          "name": "",
          "type": "bytes32",
          "internalType": "bytes32"
        }
      ],
      "stateMutability": "view"
    },
    {
      "type": "function",
      "name": "transferBridgedTokensWithSignatures",
      "inputs": [
        {
          "name": "signatures",
          "type": "bytes[]",
          "internalType": "bytes[]"
        },
        {
          "name": "message",
          "type": "tuple",
          "internalType": "struct BridgeUtils.Message",
          "components": [
            {
              "name": "messageType",
              "type": "uint8",
              "internalType": "uint8"
            },
            {
              "name": "version",
              "type": "uint8",
              "internalType": "uint8"
            },
            {
              "name": "nonce",
              "type": "uint64",
              "internalType": "uint64"
            },
            {
              "name": "chainID",
              "type": "uint8",
              "internalType": "uint8"
            },
            {
              "name": "payload",
              "type": "bytes",
              "internalType": "bytes"
            }
          ]
        }
      ],
      "outputs": [],
      "stateMutability": "nonpayable"
    },
    {
      "type": "function",
      "name": "transferBridgedTokensWithSignaturesV2",
      "inputs": [
        {
          "name": "signatures",
          "type": "bytes[]",
          "internalType": "bytes[]"
        },
        {
          "name": "message",
          "type": "tuple",
          "internalType": "struct BridgeUtils.Message",
          "components": [
            {
              "name": "messageType",
              "type": "uint8",
              "internalType": "uint8"
            },
            {
              "name": "version",
              "type": "uint8",
              "internalType": "uint8"
            },
            {
              "name": "nonce",
              "type": "uint64",
              "internalType": "uint64"
            },
            {
              "name": "chainID",
              "type": "uint8",
              "internalType": "uint8"
            },
            {
              "name": "payload",
              "type": "bytes",
              "internalType": "bytes"
            }
          ]
        }
      ],
      "outputs": [],
      "stateMutability": "nonpayable"
    },
    {
      "type": "function",
      "name": "upgradeToAndCall",
      "inputs": [
        {
          "name": "newImplementation",
          "type": "address",
          "internalType": "address"
        },
        {
          "name": "data",
          "type": "bytes",
          "internalType": "bytes"
        }
      ],
      "outputs": [],
      "stateMutability": "payable"
    },
    {
      "type": "function",
      "name": "upgradeWithSignatures",
      "inputs": [
        {
          "name": "signatures",
          "type": "bytes[]",
          "internalType": "bytes[]"
        },
        {
          "name": "message",
          "type": "tuple",
          "internalType": "struct BridgeUtils.Message",
          "components": [
            {
              "name": "messageType",
              "type": "uint8",
              "internalType": "uint8"
            },
            {
              "name": "version",
              "type": "uint8",
              "internalType": "uint8"
            },
            {
              "name": "nonce",
              "type": "uint64",
              "internalType": "uint64"
            },
            {
              "name": "chainID",
              "type": "uint8",
              "internalType": "uint8"
            },
            {
              "name": "payload",
              "type": "bytes",
              "internalType": "bytes"
            }
          ]
        }
      ],
      "outputs": [],
      "stateMutability": "nonpayable"
    },
    {
      "type": "function",
      "name": "vault",
      "inputs": [],
      "outputs": [
        {
          "name": "",
          "type": "address",
          "internalType": "contract IBridgeVault"
        }
      ],
      "stateMutability": "view"
    },
    {
      "type": "event",
      "name": "ContractUpgraded",
      "inputs": [
        {
          "name": "nonce",
          "type": "uint256",
          "indexed": false,
          "internalType": "uint256"
        },
        {
          "name": "proxy",
          "type": "address",
          "indexed": false,
          "internalType": "address"
        },
        {
          "name": "implementation",
          "type": "address",
          "indexed": false,
          "internalType": "address"
        }
      ],
      "anonymous": false
    },
    {
      "type": "event",
      "name": "EmergencyOperation",
      "inputs": [
        {
          "name": "nonce",
          "type": "uint64",
          "indexed": false,
          "internalType": "uint64"
        },
        {
          "name": "paused",
          "type": "bool",
          "indexed": false,
          "internalType": "bool"
        }
      ],
      "anonymous": false
    },
    {
      "type": "event",
      "name": "Initialized",
      "inputs": [
        {
          "name": "version",
          "type": "uint64",
          "indexed": false,
          "internalType": "uint64"
        }
      ],
      "anonymous": false
    },
    {
      "type": "event",
      "name": "Paused",
      "inputs": [
        {
          "name": "account",
          "type": "address",
          "indexed": false,
          "internalType": "address"
        }
      ],
      "anonymous": false
    },
    {
      "type": "event",
      "name": "TokensClaimed",
      "inputs": [
        {
          "name": "sourceChainID",
          "type": "uint8",
          "indexed": true,
          "internalType": "uint8"
        },
        {
          "name": "nonce",
          "type": "uint64",
          "indexed": true,
          "internalType": "uint64"
        },
        {
          "name": "destinationChainID",
          "type": "uint8",
          "indexed": true,
          "internalType": "uint8"
        },
        {
          "name": "tokenID",
          "type": "uint8",
          "indexed": false,
          "internalType": "uint8"
        },
        {
          "name": "erc20AdjustedAmount",
          "type": "uint256",
          "indexed": false,
          "internalType": "uint256"
        },
        {
          "name": "senderAddress",
          "type": "bytes",
          "indexed": false,
          "internalType": "bytes"
        },
        {
          "name": "recipientAddress",
          "type": "address",
          "indexed": false,
          "internalType": "address"
        }
      ],
      "anonymous": false
    },
    {
      "type": "event",
      "name": "TokensDeposited",
      "inputs": [
        {
          "name": "sourceChainID",
          "type": "uint8",
          "indexed": true,
          "internalType": "uint8"
        },
        {
          "name": "nonce",
          "type": "uint64",
          "indexed": true,
          "internalType": "uint64"
        },
        {
          "name": "destinationChainID",
          "type": "uint8",
          "indexed": true,
          "internalType": "uint8"
        },
        {
          "name": "tokenID",
          "type": "uint8",
          "indexed": false,
          "internalType": "uint8"
        },
        {
          "name": "suiAdjustedAmount",
          "type": "uint64",
          "indexed": false,
          "internalType": "uint64"
        },
        {
          "name": "senderAddress",
          "type": "address",
          "indexed": false,
          "internalType": "address"
        },
        {
          "name": "recipientAddress",
          "type": "bytes",
          "indexed": false,
          "internalType": "bytes"
        }
      ],
      "anonymous": false
    },
    {
      "type": "event",
      "name": "TokensDepositedV2",
      "inputs": [
        {
          "name": "sourceChainID",
          "type": "uint8",
          "indexed": true,
          "internalType": "uint8"
        },
        {
          "name": "nonce",
          "type": "uint64",
          "indexed": true,
          "internalType": "uint64"
        },
        {
          "name": "destinationChainID",
          "type": "uint8",
          "indexed": true,
          "internalType": "uint8"
        },
        {
          "name": "tokenID",
          "type": "uint8",
          "indexed": false,
          "internalType": "uint8"
        },
        {
          "name": "suiAdjustedAmount",
          "type": "uint64",
          "indexed": false,
          "internalType": "uint64"
        },
        {
          "name": "senderAddress",
          "type": "address",
          "indexed": false,
          "internalType": "address"
        },
        {
          "name": "recipientAddress",
          "type": "bytes",
          "indexed": false,
          "internalType": "bytes"
        },
        {
          "name": "timestampSeconds",
          "type": "uint256",
          "indexed": false,
          "internalType": "uint256"
        }
      ],
      "anonymous": false
    },
    {
      "type": "event",
      "name": "Unpaused",
      "inputs": [
        {
          "name": "account",
          "type": "address",
          "indexed": false,
          "internalType": "address"
        }
      ],
      "anonymous": false
    },
    {
      "type": "event",
      "name": "Upgraded",
      "inputs": [
        {
          "name": "implementation",
          "type": "address",
          "indexed": true,
          "internalType": "address"
        }
      ],
      "anonymous": false
    },
    {
      "type": "error",
      "name": "AddressEmptyCode",
      "inputs": [
        {
          "name": "target",
          "type": "address",
          "internalType": "address"
        }
      ]
    },
    {
      "type": "error",
      "name": "AddressInsufficientBalance",
      "inputs": [
        {
          "name": "account",
          "type": "address",
          "internalType": "address"
        }
      ]
    },
    {
      "type": "error",
      "name": "ERC1967InvalidImplementation",
      "inputs": [
        {
          "name": "implementation",
          "type": "address",
          "internalType": "address"
        }
      ]
    },
    {
      "type": "error",
      "name": "ERC1967NonPayable",
      "inputs": []
    },
    {
      "type": "error",
      "name": "EnforcedPause",
      "inputs": []
    },
    {
      "type": "error",
      "name": "ExpectedPause",
      "inputs": []
    },
    {
      "type": "error",
      "name": "FailedInnerCall",
      "inputs": []
    },
    {
      "type": "error",
      "name": "InvalidInitialization",
      "inputs": []
    },
    {
      "type": "error",
      "name": "NotInitializing",
      "inputs": []
    },
    {
      "type": "error",
      "name": "ReentrancyGuardReentrantCall",
      "inputs": []
    },
    {
      "type": "error",
      "name": "SafeERC20FailedOperation",
      "inputs": [
        {
          "name": "token",
          "type": "address",
          "internalType": "address"
        }
      ]
    },
    {
      "type": "error",
      "name": "UUPSUnauthorizedCallContext",
      "inputs": []
    },
    {
      "type": "error",
      "name": "UUPSUnsupportedProxiableUUID",
      "inputs": [
        {
          "name": "slot",
          "type": "bytes32",
          "internalType": "bytes32"
        }
      ]
    }
  ],
  "bytecode": {
    "object": "0x60a0604052306080523480156200001557600080fd5b506200002062000026565b620000da565b7ff0c57e16840df040f15088dc2f81fe391c3923bec73e23a9662efc9c229c6a00805468010000000000000000900460ff1615620000775760405163f92ee8a960e01b815260040160405180910390fd5b80546001600160401b0390811614620000d75780546001600160401b0319166001600160401b0390811782556040519081527fc7f505b2f371ae2175ee4913f4499e1f2633a7b5936321eed1cdaeb6115181d29060200160405180910390a15b50565b608051614f7b6200010460003960008181612d4f01528181612d780152612f280152614f7b6000f3fe6080604052600436106101095760003560e01c80639c3ecefb11610095578063beb0d55c11610064578063beb0d55c1461031a578063c0c53b8b1461033a578063d864e7401461035a578063fa72a6d01461037a578063fbfa77cf1461039a57600080fd5b80639c3ecefb14610289578063a6f740f6146102a9578063ad3cb1cc146102c9578063b4b7068c1461030757600080fd5b806352d1902d116100dc57806352d1902d146101b65780635458ea9e146101d95780635c975abb1461021957806374b87f671461023e5780639449ebd21461027657600080fd5b80630bdba58b1461010e578063212afaff146101305780634f1ef286146101505780635035bda214610163575b600080fd5b34801561011a57600080fd5b5061012e610129366004614254565b6103ba565b005b34801561013c57600080fd5b5061012e61014b366004614254565b610a1e565b61012e61015e3660046142d4565b610f63565b34801561016f57600080fd5b5061019961017e366004614323565b6001602052600090815260409020546001600160401b031681565b6040516001600160401b0390911681526020015b60405180910390f35b3480156101c257600080fd5b506101cb610f82565b6040519081526020016101ad565b3480156101e557600080fd5b506102096101f436600461435c565b60356020526000908152604090205460ff1681565b60405190151581526020016101ad565b34801561022557600080fd5b50600080516020614f068339815191525460ff16610209565b34801561024a57600080fd5b5060375461025e906001600160a01b031681565b6040516001600160a01b0390911681526020016101ad565b61012e610284366004614377565b610f9f565b34801561029557600080fd5b5061012e6102a436600461447e565b61143e565b3480156102b557600080fd5b5061012e6102c436600461447e565b611bde565b3480156102d557600080fd5b506102fa604051806040016040528060058152602001640352e302e360dc1b81525081565b6040516101ad91906145a9565b61012e610315366004614377565b611e9a565b34801561032657600080fd5b5061012e61033536600461447e565b6121b7565b34801561034657600080fd5b5061012e6103553660046145bc565b6126bc565b34801561036657600080fd5b5060005461025e906001600160a01b031681565b34801561038657600080fd5b5061012e61039536600461447e565b612804565b3480156103a657600080fd5b5060365461025e906001600160a01b031681565b6103c2612b41565b6103ca612b74565b600054604080516379502c5560e01b8152905183926001600160a01b0316916379502c559160048083019260209291908290030181865afa158015610413573d6000803e3d6000fd5b505050506040513d601f19601f820116820180604052508101906104379190614607565b604051637320953360e01b815260ff831660048201526001600160a01b039190911690637320953390602401602060405180830381865afa158015610480573d6000803e3d6000fd5b505050506040513d601f19601f820116820180604052508101906104a49190614624565b6104c95760405162461bcd60e51b81526004016104c090614646565b60405180910390fd5b82516020146104ea5760405162461bcd60e51b81526004016104c09061468b565b60008060009054906101000a90046001600160a01b03166001600160a01b03166379502c556040518163ffffffff1660e01b8152600401602060405180830381865afa15801561053e573d6000803e3d6000fd5b505050506040513d601f19601f820116820180604052508101906105629190614607565b6040516321c65a3560e11b815260ff881660048201529091506001600160a01b0382169063438cb46a90602401602060405180830381865afa1580156105ac573d6000803e3d6000fd5b505050506040513d601f19601f820116820180604052508101906105d09190614624565b6105ec5760405162461bcd60e51b81526004016104c0906146d6565b60405163e532488960e01b815260ff871660048201526000906001600160a01b0383169063e532488990602401602060405180830381865afa158015610636573d6000803e3d6000fd5b505050506040513d601f19601f8201168201806040525081019061065a9190614607565b604051636eb1769f60e11b815233600482015230602482015290915086906001600160a01b0383169063dd62ed3e90604401602060405180830381865afa1580156106a9573d6000803e3d6000fd5b505050506040513d601f19601f820116820180604052508101906106cd919061470d565b10156106eb5760405162461bcd60e51b81526004016104c090614726565b6036546040516370a0823160e01b81526001600160a01b0391821660048201526000918316906370a0823190602401602060405180830381865afa158015610737573d6000803e3d6000fd5b505050506040513d601f19601f8201168201806040525081019061075b919061470d565b60365490915061077890839033906001600160a01b03168a612bac565b6036546040516370a0823160e01b81526001600160a01b0391821660048201526000918416906370a0823190602401602060405180830381865afa1580156107c4573d6000803e3d6000fd5b505050506040513d601f19601f820116820180604052508101906107e8919061470d565b905060006107f6838361477d565b905060006108d0856001600160a01b031663313ce5676040518163ffffffff1660e01b8152600401602060405180830381865afa15801561083b573d6000803e3d6000fd5b505050506040513d601f19601f8201168201806040525081019061085f9190614790565b6040516371ceee4f60e01b815260ff8e1660048201526001600160a01b038916906371ceee4f90602401602060405180830381865afa1580156108a6573d6000803e3d6000fd5b505050506040513d601f19601f820116820180604052508101906108ca9190614790565b84612c06565b6000805260016020908152600080516020614ec6833981519152546040805163adc879e960e01b8152905193945060ff8c16936001600160401b03909216926001600160a01b038b169263adc879e99260048082019392918290030181865afa158015610941573d6000803e3d6000fd5b505050506040513d601f19601f820116820180604052508101906109659190614790565b60ff167f70ef4a8b6f5065985fc424842df9fc218ad4c4015e85bb4158770e34abbcd82c8e85338f4260405161099f9594939291906147ad565b60405180910390a460008080526001602052600080516020614ec683398151915280546001600160401b0316916109d5836147fb565b91906101000a8154816001600160401b0302191690836001600160401b031602179055505050505050505050610a186001600080516020614f2683398151915255565b50505050565b610a26612b41565b610a2e612b74565b600054604080516379502c5560e01b8152905183926001600160a01b0316916379502c559160048083019260209291908290030181865afa158015610a77573d6000803e3d6000fd5b505050506040513d601f19601f82011682018060405250810190610a9b9190614607565b604051637320953360e01b815260ff831660048201526001600160a01b039190911690637320953390602401602060405180830381865afa158015610ae4573d6000803e3d6000fd5b505050506040513d601f19601f82011682018060405250810190610b089190614624565b610b245760405162461bcd60e51b81526004016104c090614646565b8251602014610b455760405162461bcd60e51b81526004016104c09061468b565b60008060009054906101000a90046001600160a01b03166001600160a01b03166379502c556040518163ffffffff1660e01b8152600401602060405180830381865afa158015610b99573d6000803e3d6000fd5b505050506040513d601f19601f82011682018060405250810190610bbd9190614607565b6040516321c65a3560e11b815260ff881660048201529091506001600160a01b0382169063438cb46a90602401602060405180830381865afa158015610c07573d6000803e3d6000fd5b505050506040513d601f19601f82011682018060405250810190610c2b9190614624565b610c475760405162461bcd60e51b81526004016104c0906146d6565b60405163e532488960e01b815260ff871660048201526000906001600160a01b0383169063e532488990602401602060405180830381865afa158015610c91573d6000803e3d6000fd5b505050506040513d601f19601f82011682018060405250810190610cb59190614607565b604051636eb1769f60e11b815233600482015230602482015290915086906001600160a01b0383169063dd62ed3e90604401602060405180830381865afa158015610d04573d6000803e3d6000fd5b505050506040513d601f19601f82011682018060405250810190610d28919061470d565b1015610d465760405162461bcd60e51b81526004016104c090614726565b6036546040516370a0823160e01b81526001600160a01b0391821660048201526000918316906370a0823190602401602060405180830381865afa158015610d92573d6000803e3d6000fd5b505050506040513d601f19601f82011682018060405250810190610db6919061470d565b603654909150610dd390839033906001600160a01b03168a612bac565b6036546040516370a0823160e01b81526001600160a01b0391821660048201526000918416906370a0823190602401602060405180830381865afa158015610e1f573d6000803e3d6000fd5b505050506040513d601f19601f82011682018060405250810190610e43919061470d565b90506000610e51838361477d565b90506000610e96856001600160a01b031663313ce5676040518163ffffffff1660e01b8152600401602060405180830381865afa15801561083b573d6000803e3d6000fd5b6000805260016020908152600080516020614ec6833981519152546040805163adc879e960e01b8152905193945060ff8c16936001600160401b03909216926001600160a01b038b169263adc879e99260048082019392918290030181865afa158015610f07573d6000803e3d6000fd5b505050506040513d601f19601f82011682018060405250810190610f2b9190614790565b60ff167fa0f1d54820817ede8517e70a3d0a9197c015471c5360d2119b759f0359858ce68e85338f60405161099f9493929190614821565b610f6b612d44565b610f7482612de9565b610f7e8282612e5b565b5050565b6000610f8c612f1d565b50600080516020614ee683398151915290565b610fa7612b41565b610faf612b74565b600054604080516379502c5560e01b8152905183926001600160a01b0316916379502c559160048083019260209291908290030181865afa158015610ff8573d6000803e3d6000fd5b505050506040513d601f19601f8201168201806040525081019061101c9190614607565b604051637320953360e01b815260ff831660048201526001600160a01b039190911690637320953390602401602060405180830381865afa158015611065573d6000803e3d6000fd5b505050506040513d601f19601f820116820180604052508101906110899190614624565b6110a55760405162461bcd60e51b81526004016104c090614646565b82516020146110c65760405162461bcd60e51b81526004016104c09061468b565b60365460405134916000916001600160a01b039091169083908381818185875af1925050503d8060008114611117576040519150601f19603f3d011682016040523d82523d6000602084013e61111c565b606091505b505090508061113d5760405162461bcd60e51b81526004016104c09061485d565b60008060009054906101000a90046001600160a01b03166001600160a01b03166379502c556040518163ffffffff1660e01b8152600401602060405180830381865afa158015611191573d6000803e3d6000fd5b505050506040513d601f19601f820116820180604052508101906111b59190614607565b60405163e532488960e01b8152600260048201529091506000906112f9906001600160a01b0384169063e5324889906024015b602060405180830381865afa158015611205573d6000803e3d6000fd5b505050506040513d601f19601f820116820180604052508101906112299190614607565b6001600160a01b031663313ce5676040518163ffffffff1660e01b8152600401602060405180830381865afa158015611266573d6000803e3d6000fd5b505050506040513d601f19601f8201168201806040525081019061128a9190614790565b6040516371ceee4f60e01b8152600260048201526001600160a01b038516906371ceee4f90602401602060405180830381865afa1580156112cf573d6000803e3d6000fd5b505050506040513d601f19601f820116820180604052508101906112f39190614790565b86612c06565b6000805260016020908152600080516020614ec6833981519152546040805163adc879e960e01b8152905193945060ff8a16936001600160401b03909216926001600160a01b0387169263adc879e99260048082019392918290030181865afa15801561136a573d6000803e3d6000fd5b505050506040513d601f19601f8201168201806040525081019061138e9190614790565b60ff167fa0f1d54820817ede8517e70a3d0a9197c015471c5360d2119b759f0359858ce6600285338d6040516113c79493929190614821565b60405180910390a460008080526001602052600080516020614ec683398151915280546001600160401b0316916113fd836147fb565b91906101000a8154816001600160401b0302191690836001600160401b03160217905550505050505050610f7e6001600080516020614f2683398151915255565b611446612b74565b80518190839060009060ff161561146f5760405162461bcd60e51b81526004016104c0906148a7565b600054604051633c62252760e21b81526001600160a01b039091169063f188949c906114a190859087906004016148f3565b60006040518083038186803b1580156114b957600080fd5b505afa1580156114cd573d6000803e3d6000fd5b5050505060ff81161561166a5760008054906101000a90046001600160a01b03166001600160a01b03166379502c556040518163ffffffff1660e01b8152600401602060405180830381865afa15801561152b573d6000803e3d6000fd5b505050506040513d601f19601f8201168201806040525081019061154f9190614607565b6001600160a01b031663adc879e96040518163ffffffff1660e01b8152600401602060405180830381865afa15801561158c573d6000803e3d6000fd5b505050506040513d601f19601f820116820180604052508101906115b09190614790565b60ff16836060015160ff16146115d85760405162461bcd60e51b81526004016104c0906149a1565b825160ff166000908152600160205260409081902054908401516001600160401b0390811691161461161c5760405162461bcd60e51b81526004016104c0906149e2565b825160ff16600090815260016020526040812080546001600160401b031691611644836147fb565b91906101000a8154816001600160401b0302191690836001600160401b03160217905550505b836060015160008054906101000a90046001600160a01b03166001600160a01b03166379502c556040518163ffffffff1660e01b8152600401602060405180830381865afa1580156116c0573d6000803e3d6000fd5b505050506040513d601f19601f820116820180604052508101906116e49190614607565b604051637320953360e01b815260ff831660048201526001600160a01b039190911690637320953390602401602060405180830381865afa15801561172d573d6000803e3d6000fd5b505050506040513d601f19601f820116820180604052508101906117519190614624565b61176d5760405162461bcd60e51b81526004016104c090614646565b6040808601516001600160401b031660009081526035602052205460ff16156117a85760405162461bcd60e51b81526004016104c090614a19565b846020015160ff1660021461180a5760405162461bcd60e51b815260206004820152602260248201527f5375694272696467653a20496e76616c6964206d65737361676520766572736960448201526137b760f11b60648201526084016104c0565b60008060009054906101000a90046001600160a01b03166001600160a01b03166379502c556040518163ffffffff1660e01b8152600401602060405180830381865afa15801561185e573d6000803e3d6000fd5b505050506040513d601f19601f820116820180604052508101906118829190614607565b905060006118938760800151612f66565b9050816001600160a01b031663adc879e96040518163ffffffff1660e01b8152600401602060405180830381865afa1580156118d3573d6000803e3d6000fd5b505050506040513d601f19601f820116820180604052508101906118f79190614790565b60ff16816040015160ff161461194f5760405162461bcd60e51b815260206004820152601f60248201527f5375694272696467653a20496e76616c69642074617267657420636861696e0060448201526064016104c0565b60a081015160405163e532488960e01b815260ff9091166004820152600090611aa4906001600160a01b0385169063e5324889906024015b602060405180830381865afa1580156119a4573d6000803e3d6000fd5b505050506040513d601f19601f820116820180604052508101906119c89190614607565b6001600160a01b031663313ce5676040518163ffffffff1660e01b8152600401602060405180830381865afa158015611a05573d6000803e3d6000fd5b505050506040513d601f19601f82011682018060405250810190611a299190614790565b60a08401516040516371ceee4f60e01b815260ff90911660048201526001600160a01b038616906371ceee4f90602401602060405180830381865afa158015611a76573d6000803e3d6000fd5b505050506040513d601f19601f82011682018060405250810190611a9a9190614790565b8460c0015161323f565b9050611ad088606001518360a001518460800151846103e88760e00151611acb9190614a5d565b6132e8565b6040808901516001600160401b031660009081526035602090815290829020805460ff19166001179055815163adc879e960e01b815291516001600160a01b0386169263adc879e99260048083019391928290030181865afa158015611b3a573d6000803e3d6000fd5b505050506040513d601f19601f82011682018060405250810190611b5e9190614790565b60ff1688604001516001600160401b0316896060015160ff167f933e8377dca7a8cf67d2bf865c4d8c1c45347815760900f9d2eb5655a06943af8560a001518587602001518860800151604051611bb89493929190614a7f565b60405180910390a450505050505050610f7e6001600080516020614f2683398151915255565b611be6612b74565b80518190839060029060ff168114611c105760405162461bcd60e51b81526004016104c0906148a7565b600054604051633c62252760e21b81526001600160a01b039091169063f188949c90611c4290859087906004016148f3565b60006040518083038186803b158015611c5a57600080fd5b505afa158015611c6e573d6000803e3d6000fd5b5050505060ff811615611e0b5760008054906101000a90046001600160a01b03166001600160a01b03166379502c556040518163ffffffff1660e01b8152600401602060405180830381865afa158015611ccc573d6000803e3d6000fd5b505050506040513d601f19601f82011682018060405250810190611cf09190614607565b6001600160a01b031663adc879e96040518163ffffffff1660e01b8152600401602060405180830381865afa158015611d2d573d6000803e3d6000fd5b505050506040513d601f19601f82011682018060405250810190611d519190614790565b60ff16836060015160ff1614611d795760405162461bcd60e51b81526004016104c0906149a1565b825160ff166000908152600160205260409081902054908401516001600160401b03908116911614611dbd5760405162461bcd60e51b81526004016104c0906149e2565b825160ff16600090815260016020526040812080546001600160401b031691611de5836147fb565b91906101000a8154816001600160401b0302191690836001600160401b03160217905550505b6000611e1a856080015161360c565b90508015611e2f57611e2a6136e5565b611e37565b611e37613748565b60408086015181516001600160401b03909116815282151560208201527f0838fecaac9057733ed7f9bb6e8ecfacf0d9c68d2f9b06e84f8c7f6098814bfb910160405180910390a150505050610f7e6001600080516020614f2683398151915255565b611ea2612b41565b611eaa612b74565b600054604080516379502c5560e01b8152905183926001600160a01b0316916379502c559160048083019260209291908290030181865afa158015611ef3573d6000803e3d6000fd5b505050506040513d601f19601f82011682018060405250810190611f179190614607565b604051637320953360e01b815260ff831660048201526001600160a01b039190911690637320953390602401602060405180830381865afa158015611f60573d6000803e3d6000fd5b505050506040513d601f19601f82011682018060405250810190611f849190614624565b611fa05760405162461bcd60e51b81526004016104c090614646565b8251602014611fc15760405162461bcd60e51b81526004016104c09061468b565b60365460405134916000916001600160a01b039091169083908381818185875af1925050503d8060008114612012576040519150601f19603f3d011682016040523d82523d6000602084013e612017565b606091505b50509050806120385760405162461bcd60e51b81526004016104c09061485d565b60008060009054906101000a90046001600160a01b03166001600160a01b03166379502c556040518163ffffffff1660e01b8152600401602060405180830381865afa15801561208c573d6000803e3d6000fd5b505050506040513d601f19601f820116820180604052508101906120b09190614607565b60405163e532488960e01b8152600260048201529091506000906120e7906001600160a01b0384169063e5324889906024016111e8565b6000805260016020908152600080516020614ec6833981519152546040805163adc879e960e01b8152905193945060ff8a16936001600160401b03909216926001600160a01b0387169263adc879e99260048082019392918290030181865afa158015612158573d6000803e3d6000fd5b505050506040513d601f19601f8201168201806040525081019061217c9190614790565b60ff167f70ef4a8b6f5065985fc424842df9fc218ad4c4015e85bb4158770e34abbcd82c600285338d426040516113c79594939291906147ad565b6121bf612b74565b80518190839060009060ff16156121e85760405162461bcd60e51b81526004016104c0906148a7565b600054604051633c62252760e21b81526001600160a01b039091169063f188949c9061221a90859087906004016148f3565b60006040518083038186803b15801561223257600080fd5b505afa158015612246573d6000803e3d6000fd5b5050505060ff8116156123e35760008054906101000a90046001600160a01b03166001600160a01b03166379502c556040518163ffffffff1660e01b8152600401602060405180830381865afa1580156122a4573d6000803e3d6000fd5b505050506040513d601f19601f820116820180604052508101906122c89190614607565b6001600160a01b031663adc879e96040518163ffffffff1660e01b8152600401602060405180830381865afa158015612305573d6000803e3d6000fd5b505050506040513d601f19601f820116820180604052508101906123299190614790565b60ff16836060015160ff16146123515760405162461bcd60e51b81526004016104c0906149a1565b825160ff166000908152600160205260409081902054908401516001600160401b039081169116146123955760405162461bcd60e51b81526004016104c0906149e2565b825160ff16600090815260016020526040812080546001600160401b0316916123bd836147fb565b91906101000a8154816001600160401b0302191690836001600160401b03160217905550505b836060015160008054906101000a90046001600160a01b03166001600160a01b03166379502c556040518163ffffffff1660e01b8152600401602060405180830381865afa158015612439573d6000803e3d6000fd5b505050506040513d601f19601f8201168201806040525081019061245d9190614607565b604051637320953360e01b815260ff831660048201526001600160a01b039190911690637320953390602401602060405180830381865afa1580156124a6573d6000803e3d6000fd5b505050506040513d601f19601f820116820180604052508101906124ca9190614624565b6124e65760405162461bcd60e51b81526004016104c090614646565b6040808601516001600160401b031660009081526035602052205460ff16156125215760405162461bcd60e51b81526004016104c090614a19565b60008060009054906101000a90046001600160a01b03166001600160a01b03166379502c556040518163ffffffff1660e01b8152600401602060405180830381865afa158015612575573d6000803e3d6000fd5b505050506040513d601f19601f820116820180604052508101906125999190614607565b905060006125aa876080015161378e565b9050816001600160a01b031663adc879e96040518163ffffffff1660e01b8152600401602060405180830381865afa1580156125ea573d6000803e3d6000fd5b505050506040513d601f19601f8201168201806040525081019061260e9190614790565b60ff16816040015160ff16146126665760405162461bcd60e51b815260206004820152601f60248201527f5375694272696467653a20496e76616c69642074617267657420636861696e0060448201526064016104c0565b60a081015160405163e532488960e01b815260ff90911660048201526000906126a2906001600160a01b0385169063e532488990602401611987565b9050611ad088606001518360a00151846080015184613a4c565b7ff0c57e16840df040f15088dc2f81fe391c3923bec73e23a9662efc9c229c6a008054600160401b810460ff1615906001600160401b03166000811580156127015750825b90506000826001600160401b0316600114801561271d5750303b155b90508115801561272b575080155b156127495760405163f92ee8a960e01b815260040160405180910390fd5b845467ffffffffffffffff19166001178555831561277357845460ff60401b1916600160401b1785555b61277c88613d5f565b612784613d9a565b603680546001600160a01b03808a166001600160a01b031992831617909255603780549289169290911691909117905583156127fa57845460ff60401b19168555604051600181527fc7f505b2f371ae2175ee4913f4499e1f2633a7b5936321eed1cdaeb6115181d29060200160405180910390a15b5050505050505050565b61280c612b74565b80518190839060059060ff1681146128365760405162461bcd60e51b81526004016104c0906148a7565b600054604051633c62252760e21b81526001600160a01b039091169063f188949c9061286890859087906004016148f3565b60006040518083038186803b15801561288057600080fd5b505afa158015612894573d6000803e3d6000fd5b5050505060ff811615612a315760008054906101000a90046001600160a01b03166001600160a01b03166379502c556040518163ffffffff1660e01b8152600401602060405180830381865afa1580156128f2573d6000803e3d6000fd5b505050506040513d601f19601f820116820180604052508101906129169190614607565b6001600160a01b031663adc879e96040518163ffffffff1660e01b8152600401602060405180830381865afa158015612953573d6000803e3d6000fd5b505050506040513d601f19601f820116820180604052508101906129779190614790565b60ff16836060015160ff161461299f5760405162461bcd60e51b81526004016104c0906149a1565b825160ff166000908152600160205260409081902054908401516001600160401b039081169116146129e35760405162461bcd60e51b81526004016104c0906149e2565b825160ff16600090815260016020526040812080546001600160401b031691612a0b836147fb565b91906101000a8154816001600160401b0302191690836001600160401b03160217905550505b6000806000612a438760800151613daa565b919450925090506001600160a01b0383163014612ab65760405162461bcd60e51b815260206004820152602b60248201527f436f6d6d69747465655570677261646561626c653a20496e76616c696420707260448201526a6f7879206164647265737360a81b60648201526084016104c0565b6002805460ff19166001179055612acd8282610f63565b60408781015181516001600160401b0390911681526001600160a01b03858116602083015284168183015290517fdc69b57038334451ee12fd1742228917cea7f40dbd33cda5162e7e5754acee1c9181900360600190a1505050505050610f7e6001600080516020614f2683398151915255565b600080516020614f068339815191525460ff1615612b725760405163d93c066560e01b815260040160405180910390fd5b565b600080516020614f26833981519152805460011901612ba657604051633ee5aeb560e01b815260040160405180910390fd5b60029055565b604080516001600160a01b0385811660248301528416604482015260648082018490528251808303909101815260849091019091526020810180516001600160e01b03166323b872dd60e01b179052610a18908590613dd8565b60008260ff168460ff1603612c635760008211612c355760405162461bcd60e51b81526004016104c090614aba565b6001600160401b03821115612c5c5760405162461bcd60e51b81526004016104c090614b03565b5080612d29565b8260ff168460ff1611612cb85760405162461bcd60e51b815260206004820181905260248201527f4272696467655574696c733a20496e76616c69642053756920646563696d616c60448201526064016104c0565b6000612cc48486614b4b565b612ccf90600a614c48565b9050612cdb8184614a5d565b92506001600160401b03831115612d045760405162461bcd60e51b81526004016104c090614b03565b60008311612d245760405162461bcd60e51b81526004016104c090614aba565b829150505b9392505050565b6001600080516020614f2683398151915255565b306001600160a01b037f0000000000000000000000000000000000000000000000000000000000000000161480612dcb57507f00000000000000000000000000000000000000000000000000000000000000006001600160a01b0316612dbf600080516020614ee6833981519152546001600160a01b031690565b6001600160a01b031614155b15612b725760405163703e46dd60e11b815260040160405180910390fd5b60025460ff16612e4e5760405162461bcd60e51b815260206004820152602a60248201527f436f6d6d69747465655570677261646561626c653a20556e617574686f72697a6044820152696564207570677261646560b01b60648201526084016104c0565b506002805460ff19169055565b816001600160a01b03166352d1902d6040518163ffffffff1660e01b8152600401602060405180830381865afa925050508015612eb5575060408051601f3d908101601f19168201909252612eb29181019061470d565b60015b612edd57604051634c9c8ce360e01b81526001600160a01b03831660048201526024016104c0565b600080516020614ee68339815191528114612f0e57604051632a87526960e21b8152600481018290526024016104c0565b612f188383613e3b565b505050565b306001600160a01b037f00000000000000000000000000000000000000000000000000000000000000001614612b725760405163703e46dd60e11b815260040160405180910390fd5b604080516101008101825260008082526060602083018190529282018190529181018290526080810182905260a0810182905260c0810182905260e081019190915281516048146130145760405162461bcd60e51b815260206004820152603260248201527f4272696467655574696c733a20546f6b656e5472616e736665725061796c6f6160448201527164206d75737420626520373220627974657360701b60648201526084016104c0565b60008260008151811061302957613029614c57565b0160209081015160f81c915081146130535760405162461bcd60e51b81526004016104c090614c6d565b6001600060ff83166001600160401b0381111561307257613072614191565b6040519080825280601f01601f19166020018201604052801561309c576020820181803683370190505b50905060005b8360ff1681101561311157856130bb60ff851683614cdb565b815181106130cb576130cb614c57565b602001015160f81c60f81b8282815181106130e8576130e8614c57565b60200101906001600160f81b031916908160001a9053508061310981614cee565b9150506130a2565b5061311c8383614d07565b91506000858361312b81614d20565b945060ff168151811061314057613140614c57565b016020015160f81c90506000868461315781614d20565b955060ff168151811061316c5761316c614c57565b016020015160f81c9050601481146131965760405162461bcd60e51b81526004016104c090614d3f565b8084018701516131a68286614d07565b9450600088866131b581614d20565b975060ff16815181106131ca576131ca614c57565b01602090810151968a01600801516048909a0151604080516101008101825260ff9a8b168152928301979097529488169581019590955250941660608301526001600160a01b03909316608082015260f89190911c60a08201526001600160401b0393841660c0820152921660e08301525090565b60008360ff168360ff160361325e57506001600160401b038116612d29565b8260ff168460ff16116132b35760405162461bcd60e51b815260206004820181905260248201527f4272696467655574696c733a20496e76616c69642053756920646563696d616c60448201526064016104c0565b60006132bf8486614b4b565b6132ca90600a614c48565b90506132df816001600160401b038516614dad565b95945050505050565b6132f0612b41565b848483836132fe8142613e91565b61340d5760375460405163f7857a1960e01b815260ff808716600483015285166024820152604481018490526001600160a01b039091169063f7857a1990606401602060405180830381865afa15801561335c573d6000803e3d6000fd5b505050506040513d601f19601f820116820180604052508101906133809190614624565b1561339d5760405162461bcd60e51b81526004016104c090614dc4565b603754604051639373d39160e01b815260ff808716600483015285166024820152604481018490526001600160a01b0390911690639373d39190606401600060405180830381600087803b1580156133f457600080fd5b505af1158015613408573d6000803e3d6000fd5b505050505b60008060009054906101000a90046001600160a01b03166001600160a01b03166379502c556040518163ffffffff1660e01b8152600401602060405180830381865afa158015613461573d6000803e3d6000fd5b505050506040513d601f19601f820116820180604052508101906134859190614607565b60405163e532488960e01b815260ff8b1660048201526001600160a01b03919091169063e532488990602401602060405180830381865afa1580156134ce573d6000803e3d6000fd5b505050506040513d601f19601f820116820180604052508101906134f29190614607565b90506001600160a01b03811661351a5760405162461bcd60e51b81526004016104c0906146d6565b60011960ff8a160161359157603654604051637b1a490960e01b81526001600160a01b038a81166004830152602482018a905290911690637b1a490990604401600060405180830381600087803b15801561357457600080fd5b505af1158015613588573d6000803e3d6000fd5b50505050613600565b60365460405163276d76f960e21b81526001600160a01b0383811660048301528a81166024830152604482018a905290911690639db5dbe490606401600060405180830381600087803b1580156135e757600080fd5b505af11580156135fb573d6000803e3d6000fd5b505050505b50505050505050505050565b6000815160011461366b5760405162461bcd60e51b815260206004820152602360248201527f4272696467655574696c733a20496e76616c6964207061796c6f6164206c656e6044820152620cee8d60eb1b60648201526084016104c0565b60008260008151811061368057613680614c57565b016020015160f81c905060018111156136db5760405162461bcd60e51b815260206004820152601c60248201527f4272696467655574696c733a20496e76616c6964206f7020636f64650000000060448201526064016104c0565b60ff161592915050565b6136ed612b41565b600080516020614f06833981519152805460ff191660011781557f62e78cea01bee320cd4e420270b5ea74000d11b0c9f74754ebdbfc544b05a258335b6040516001600160a01b03909116815260200160405180910390a150565b613750613eab565b600080516020614f06833981519152805460ff191681557f5db9ee0a495bf2e6ff9c91a7834c1ba4fdd244a5e8aa4e537bd38aeae4b073aa3361372a565b6040805160e081018252600080825260606020830181905282840182905282018190526080820181905260a0820181905260c082015282519091146138305760405162461bcd60e51b815260206004820152603260248201527f4272696467655574696c733a20546f6b656e5472616e736665725061796c6f6160448201527164206d75737420626520363420627974657360701b60648201526084016104c0565b60008260008151811061384557613845614c57565b0160209081015160f81c9150811461386f5760405162461bcd60e51b81526004016104c090614c6d565b6001600060ff83166001600160401b0381111561388e5761388e614191565b6040519080825280601f01601f1916602001820160405280156138b8576020820181803683370190505b50905060005b8360ff1681101561392d57856138d760ff851683614cdb565b815181106138e7576138e7614c57565b602001015160f81c60f81b82828151811061390457613904614c57565b60200101906001600160f81b031916908160001a9053508061392581614cee565b9150506138be565b506139388383614d07565b91506000858361394781614d20565b945060ff168151811061395c5761395c614c57565b016020015160f81c90506000868461397381614d20565b955060ff168151811061398857613988614c57565b016020015160f81c9050601481146139b25760405162461bcd60e51b81526004016104c090614d3f565b8084018701516139c28286614d07565b9450600088866139d181614d20565b975060ff16815181106139e6576139e6614c57565b0160209081015199909601600801516040805160e08101825260ff998a1681529788019690965293871694860194909452941660608401526001600160a01b0390931660808301525060f89390931c60a08401526001600160401b031660c08301525090565b613a54612b41565b60375460405163f7857a1960e01b815260ff808716600483015285166024820152604481018390528591859184916001600160a01b03169063f7857a1990606401602060405180830381865afa158015613ab2573d6000803e3d6000fd5b505050506040513d601f19601f82011682018060405250810190613ad69190614624565b15613af35760405162461bcd60e51b81526004016104c090614dc4565b60008060009054906101000a90046001600160a01b03166001600160a01b03166379502c556040518163ffffffff1660e01b8152600401602060405180830381865afa158015613b47573d6000803e3d6000fd5b505050506040513d601f19601f82011682018060405250810190613b6b9190614607565b60405163e532488960e01b815260ff891660048201526001600160a01b03919091169063e532488990602401602060405180830381865afa158015613bb4573d6000803e3d6000fd5b505050506040513d601f19601f82011682018060405250810190613bd89190614607565b90506001600160a01b038116613c005760405162461bcd60e51b81526004016104c0906146d6565b60011960ff881601613c7757603654604051637b1a490960e01b81526001600160a01b0388811660048301526024820188905290911690637b1a490990604401600060405180830381600087803b158015613c5a57600080fd5b505af1158015613c6e573d6000803e3d6000fd5b50505050613ce6565b60365460405163276d76f960e21b81526001600160a01b03838116600483015288811660248301526044820188905290911690639db5dbe490606401600060405180830381600087803b158015613ccd57600080fd5b505af1158015613ce1573d6000803e3d6000fd5b505050505b603754604051639373d39160e01b815260ff808b16600483015289166024820152604481018790526001600160a01b0390911690639373d39190606401600060405180830381600087803b158015613d3d57600080fd5b505af1158015613d51573d6000803e3d6000fd5b505050505050505050505050565b613d67613edb565b613d6f613f24565b613d7881613f34565b600080546001600160a01b0319166001600160a01b0392909216919091179055565b613da2613edb565b612b72613f3c565b6000806060600080600086806020019051810190613dc89190614e0a565b9199909850909650945050505050565b6000613ded6001600160a01b03841683613f5d565b90508051600014158015613e12575080806020019051810190613e109190614624565b155b15612f1857604051635274afe760e01b81526001600160a01b03841660048201526024016104c0565b613e4482613f6b565b6040516001600160a01b038316907fbc7cd75a20ee27fd9adebab32041f755214dbc6bffa90cc0225b39da2e5c2d3b90600090a2805115613e8957612f188282613fd0565b610f7e61403d565b6000613ea0836202a300614cdb565b821190505b92915050565b600080516020614f068339815191525460ff16612b7257604051638dfc202b60e01b815260040160405180910390fd5b7ff0c57e16840df040f15088dc2f81fe391c3923bec73e23a9662efc9c229c6a0054600160401b900460ff16612b7257604051631afcd79f60e31b815260040160405180910390fd5b613f2c613edb565b612b7261405c565b613d78613edb565b613f44613edb565b600080516020614f06833981519152805460ff19169055565b6060612d2983836000614064565b806001600160a01b03163b600003613fa157604051634c9c8ce360e01b81526001600160a01b03821660048201526024016104c0565b600080516020614ee683398151915280546001600160a01b0319166001600160a01b0392909216919091179055565b6060600080846001600160a01b031684604051613fed9190614ea9565b600060405180830381855af49150503d8060008114614028576040519150601f19603f3d011682016040523d82523d6000602084013e61402d565b606091505b50915091506132df858383614101565b3415612b725760405163b398979f60e01b815260040160405180910390fd5b612d30613edb565b6060814710156140895760405163cd78605960e01b81523060048201526024016104c0565b600080856001600160a01b031684866040516140a59190614ea9565b60006040518083038185875af1925050503d80600081146140e2576040519150601f19603f3d011682016040523d82523d6000602084013e6140e7565b606091505b50915091506140f7868383614101565b9695505050505050565b6060826141165761411182614156565b612d29565b815115801561412d57506001600160a01b0384163b155b15612c5c57604051639996b31560e01b81526001600160a01b03851660048201526024016104c0565b8051156141665780518082602001fd5b604051630a12f52160e11b815260040160405180910390fd5b50565b60ff8116811461417f57600080fd5b634e487b7160e01b600052604160045260246000fd5b604051601f8201601f191681016001600160401b03811182821017156141cf576141cf614191565b604052919050565b60006001600160401b038211156141f0576141f0614191565b50601f01601f191660200190565b600082601f83011261420f57600080fd5b813561422261421d826141d7565b6141a7565b81815284602083860101111561423757600080fd5b816020850160208301376000918101602001919091529392505050565b6000806000806080858703121561426a57600080fd5b843561427581614182565b93506020850135925060408501356001600160401b0381111561429757600080fd5b6142a3878288016141fe565b92505060608501356142b481614182565b939692955090935050565b6001600160a01b038116811461417f57600080fd5b600080604083850312156142e757600080fd5b82356142f2816142bf565b915060208301356001600160401b0381111561430d57600080fd5b614319858286016141fe565b9150509250929050565b60006020828403121561433557600080fd5b8135612d2981614182565b80356001600160401b038116811461435757600080fd5b919050565b60006020828403121561436e57600080fd5b612d2982614340565b6000806040838503121561438a57600080fd5b82356001600160401b038111156143a057600080fd5b6143ac858286016141fe565b92505060208301356143bd81614182565b809150509250929050565b600060a082840312156143da57600080fd5b60405160a081016001600160401b0382821081831117156143fd576143fd614191565b816040528293508435915061441182614182565b90825260208401359061442382614182565b81602084015261443560408601614340565b60408401526060850135915061444a82614182565b816060840152608085013591508082111561446457600080fd5b50614471858286016141fe565b6080830152505092915050565b6000806040838503121561449157600080fd5b82356001600160401b03808211156144a857600080fd5b818501915085601f8301126144bc57600080fd5b81356020828211156144d0576144d0614191565b8160051b6144df8282016141a7565b928352848101820192828101908a8511156144f957600080fd5b83870192505b84831015614535578235868111156145175760008081fd5b6145258c86838b01016141fe565b83525091830191908301906144ff565b975050508601359250508082111561454c57600080fd5b50614319858286016143c8565b60005b8381101561457457818101518382015260200161455c565b50506000910152565b60008151808452614595816020860160208601614559565b601f01601f19169290920160200192915050565b602081526000612d29602083018461457d565b6000806000606084860312156145d157600080fd5b83356145dc816142bf565b925060208401356145ec816142bf565b915060408401356145fc816142bf565b809150509250925092565b60006020828403121561461957600080fd5b8151612d29816142bf565b60006020828403121561463657600080fd5b81518015158114612d2957600080fd5b60208082526025908201527f5375694272696467653a2054617267657420636861696e206e6f7420737570706040820152641bdc9d195960da1b606082015260800190565b6020808252602b908201527f5375694272696467653a20496e76616c696420726563697069656e742061646460408201526a0e4cae6e640d8cadccee8d60ab1b606082015260800190565b6020808252601c908201527f5375694272696467653a20556e737570706f7274656420746f6b656e00000000604082015260600190565b60006020828403121561471f57600080fd5b5051919050565b60208082526021908201527f5375694272696467653a20496e73756666696369656e7420616c6c6f77616e636040820152606560f81b606082015260800190565b634e487b7160e01b600052601160045260246000fd5b81810381811115613ea557613ea5614767565b6000602082840312156147a257600080fd5b8151612d2981614182565b60ff861681526001600160401b03851660208201526001600160a01b038416604082015260a0606082018190526000906147e99083018561457d565b90508260808301529695505050505050565b60006001600160401b0380831681810361481757614817614767565b6001019392505050565b60ff851681526001600160401b03841660208201526001600160a01b03831660408201526080606082018190526000906140f79083018461457d565b6020808252602a908201527f5375694272696467653a204661696c656420746f207472616e7366657220455460408201526912081d1bc81d985d5b1d60b21b606082015260800190565b6020808252602c908201527f4d65737361676556657269666965723a206d65737361676520646f6573206e6f60408201526b74206d61746368207479706560a01b606082015260800190565b6000604082016040835280855180835260608501915060608160051b8601019250602080880160005b8381101561494a57605f1988870301855261493886835161457d565b9550938201939082019060010161491c565b50508584038187015260ff875116845260ff8188015116818501525050506001600160401b03604085015116604082015260ff6060850151166060820152608084015160a060808301526140f760a083018261457d565b60208082526021908201527f4d65737361676556657269666965723a20496e76616c696420636861696e20496040820152601160fa1b606082015260800190565b6020808252601e908201527f4d65737361676556657269666965723a20496e76616c6964206e6f6e63650000604082015260600190565b60208082526024908201527f5375694272696467653a204d65737361676520616c72656164792070726f63656040820152631cdcd95960e21b606082015260800190565b600082614a7a57634e487b7160e01b600052601260045260246000fd5b500490565b60ff85168152836020820152608060408201526000614aa1608083018561457d565b905060018060a01b038316606083015295945050505050565b60208082526029908201527f4272696467655574696c733a20496e73756666696369656e7420616d6f756e74604082015268081c1c9bdd9a59195960ba1b606082015260800190565b60208082526028908201527f4272696467655574696c733a20416d6f756e7420746f6f206c6172676520666f6040820152671c881d5a5b9d0d8d60c21b606082015260800190565b60ff8281168282160390811115613ea557613ea5614767565b600181815b80851115614b9f578160001904821115614b8557614b85614767565b80851615614b9257918102915b93841c9390800290614b69565b509250929050565b600082614bb657506001613ea5565b81614bc357506000613ea5565b8160018114614bd95760028114614be357614bff565b6001915050613ea5565b60ff841115614bf457614bf4614767565b50506001821b613ea5565b5060208310610133831016604e8410600b8410161715614c22575081810a613ea5565b614c2c8383614b64565b8060001904821115614c4057614c40614767565b029392505050565b6000612d2960ff841683614ba7565b634e487b7160e01b600052603260045260246000fd5b60208082526048908201527f4272696467655574696c733a20496e76616c69642073656e646572206164647260408201527f657373206c656e6774682c205375692061646472657373206d75737420626520606082015267333220627974657360c01b608082015260a00190565b80820180821115613ea557613ea5614767565b600060018201614d0057614d00614767565b5060010190565b60ff8181168382160190811115613ea557613ea5614767565b600060ff821660ff8103614d3657614d36614767565b60010192915050565b60208082526048908201527f4272696467655574696c733a20496e76616c696420746172676574206164647260408201527f657373206c656e6774682c2045564d2061646472657373206d75737420626520606082015267323020627974657360c01b608082015260a00190565b8082028115828204841417613ea557613ea5614767565b60208082526026908201527f5375694272696467653a20416d6f756e74206578636565647320627269646765604082015265081b1a5b5a5d60d21b606082015260800190565b600080600060608486031215614e1f57600080fd5b8351614e2a816142bf565b6020850151909350614e3b816142bf565b60408501519092506001600160401b03811115614e5757600080fd5b8401601f81018613614e6857600080fd5b8051614e7661421d826141d7565b818152876020838501011115614e8b57600080fd5b614e9c826020830160208601614559565b8093505050509250925092565b60008251614ebb818460208701614559565b919091019291505056fea6eef7e35abe7026729641147f7915573c7e97b47efa546f5f6e3230263bcb49360894a13ba1a3210667c828492db98dca3e2076cc3735a920a3ca505d382bbccd5ed15c6e187e77e9aee88184c21f4f2182ab5827cb3b7e07fbedcd63f033009b779b17422d0df92223018b32b4d1fa46e071723d6817e2486d003becc55f00a264697066735822122062b1ce63d39780dfe390fde007d2e57a033ed820519f5609bddc8e568c0faba864736f6c63430008140033",
    "linkReferences": {}
  },
  "methodIdentifiers": {
    "UPGRADE_INTERFACE_VERSION()": "ad3cb1cc",
    "bridgeERC20(uint8,uint256,bytes,uint8)": "212afaff",
    "bridgeERC20V2(uint8,uint256,bytes,uint8)": "0bdba58b",
    "bridgeETH(bytes,uint8)": "9449ebd2",
    "bridgeETHV2(bytes,uint8)": "b4b7068c",
    "committee()": "d864e740",
    "executeEmergencyOpWithSignatures(bytes[],(uint8,uint8,uint64,uint8,bytes))": "a6f740f6",
    "initialize(address,address,address)": "c0c53b8b",
    "isTransferProcessed(uint64)": "5458ea9e",
    "limiter()": "74b87f67",
    "nonces(uint8)": "5035bda2",
    "paused()": "5c975abb",
    "proxiableUUID()": "52d1902d",
    "transferBridgedTokensWithSignatures(bytes[],(uint8,uint8,uint64,uint8,bytes))": "beb0d55c",
    "transferBridgedTokensWithSignaturesV2(bytes[],(uint8,uint8,uint64,uint8,bytes))": "9c3ecefb",
    "upgradeToAndCall(address,bytes)": "4f1ef286",
    "upgradeWithSignatures(bytes[],(uint8,uint8,uint64,uint8,bytes))": "fa72a6d0",
    "vault()": "fbfa77cf"
  },
  "storageLayout": {
    "storage": [
      {
        "astId": 4025,
        "contract": "contracts/SuiBridgeV2.sol:SuiBridgeV2",
        "label": "committee",
        "offset": 0,
        "slot": "0",
        "type": "t_contract(IBridgeCommittee)2528"
      },
      {
        "astId": 4029,
        "contract": "contracts/SuiBridgeV2.sol:SuiBridgeV2",
        "label": "nonces",
        "offset": 0,
        "slot": "1",
        "type": "t_mapping(t_uint8,t_uint64)"
      },
      {
        "astId": 3898,
        "contract": "contracts/SuiBridgeV2.sol:SuiBridgeV2",
        "label": "_upgradeAuthorized",
        "offset": 0,
        "slot": "2",
        "type": "t_bool"
      },
      {
        "astId": 3902,
        "contract": "contracts/SuiBridgeV2.sol:SuiBridgeV2",
        "label": "__gap",
        "offset": 0,
        "slot": "3",
        "type": "t_array(t_uint256)50_storage"
      },
      {
        "astId": 1411,
        "contract": "contracts/SuiBridgeV2.sol:SuiBridgeV2",
        "label": "isTransferProcessed",
        "offset": 0,
        "slot": "53",
        "type": "t_mapping(t_uint64,t_bool)"
      },
      {
        "astId": 1414,
        "contract": "contracts/SuiBridgeV2.sol:SuiBridgeV2",
        "label": "vault",
        "offset": 0,
        "slot": "54",
        "type": "t_contract(IBridgeVault)2701"
      },
      {
        "astId": 1417,
        "contract": "contracts/SuiBridgeV2.sol:SuiBridgeV2",
        "label": "limiter",
        "offset": 0,
        "slot": "55",
        "type": "t_contract(IBridgeLimiter)2679"
      }
    ],
    "types": {
      "t_array(t_uint256)50_storage": {
        "encoding": "inplace",
        "label": "uint256[50]",
        "numberOfBytes": "1600",
        "base": "t_uint256"
      },
      "t_bool": {
        "encoding": "inplace",
        "label": "bool",
        "numberOfBytes": "1"
      },
      "t_contract(IBridgeCommittee)2528": {
        "encoding": "inplace",
        "label": "contract IBridgeCommittee",
        "numberOfBytes": "20"
      },
      "t_contract(IBridgeLimiter)2679": {
        "encoding": "inplace",
        "label": "contract IBridgeLimiter",
        "numberOfBytes": "20"
      },
      "t_contract(IBridgeVault)2701": {
        "encoding": "inplace",
        "label": "contract IBridgeVault",
        "numberOfBytes": "20"
      },
      "t_mapping(t_uint64,t_bool)": {
        "encoding": "mapping",
        "key": "t_uint64",
        "label": "mapping(uint64 => bool)",
        "numberOfBytes": "32",
        "value": "t_bool"
      },
      "t_mapping(t_uint8,t_uint64)": {
        "encoding": "mapping",
        "key": "t_uint8",
        "label": "mapping(uint8 => uint64)",
        "numberOfBytes": "32",
        "value": "t_uint64"
      },
      "t_uint256": {
        "encoding": "inplace",
        "label": "uint256",
        "numberOfBytes": "32"
      },
      "t_uint64": {
        "encoding": "inplace",
        "label": "uint64",
        "numberOfBytes": "8"
      },
      "t_uint8": {
        "encoding": "inplace",
        "label": "uint8",
        "numberOfBytes": "1"
      }
    }
  },
  "id": 5
}