{
  "abi": [
    {
      "type": "function",
      "name": "UPGRADE_INTERFACE_VERSION",
      "inputs": [],
      "outputs": [
        {
          "name": "",
          "type": "string",
          "internalType": "string"
        }
      ],
      "stateMutability": "view"
    },
    {
      "type": "function",
      "name": "bridgeERC20",
      "inputs": [
        {
          "name": "tokenID",
          "type": "uint8",
          "internalType": "uint8"
        },
        {
          "name": "amount",
          "type": "uint256",
          "internalType": "uint256"
        },
        {
          "name": "recipientAddress",
          "type": "bytes",
          "internalType": "bytes"
        },
        {
          "name": "destinationChainID",
          "type": "uint8",
          "internalType": "uint8"
        }
      ],
      "outputs": [],
      "stateMutability": "nonpayable"
    },
    {
      "type": "function",
      "name": "bridgeETH",
      "inputs": [
        {
          "name": "recipientAddress",
          "type": "bytes",
          "internalType": "bytes"
        },
        {
          "name": "destinationChainID",
          "type": "uint8",
          "internalType": "uint8"
        }
      ],
      "outputs": [],
      "stateMutability": "payable"
    },
    {
      "type": "function",
      "name": "committee",
      "inputs": [],
      "outputs": [
        {
          "name": "",
          "type": "address",
          "internalType": "contract IBridgeCommittee"
        }
      ],
      "stateMutability": "view"
    },
    {
      "type": "function",
      "name": "executeEmergencyOpWithSignatures",
      "inputs": [
        {
          "name": "signatures",
          "type": "bytes[]",
          "internalType": "bytes[]"
        },
        {
          "name": "message",
          "type": "tuple",
          "internalType": "struct BridgeUtils.Message",
          "components": [
            {
              "name": "messageType",
              "type": "uint8",
              "internalType": "uint8"
            },
            {
              "name": "version",
              "type": "uint8",
              "internalType": "uint8"
            },
            {
              "name": "nonce",
              "type": "uint64",
              "internalType": "uint64"
            },
            {
              "name": "chainID",
              "type": "uint8",
              "internalType": "uint8"
            },
            {
              "name": "payload",
              "type": "bytes",
              "internalType": "bytes"
            }
          ]
        }
      ],
      "outputs": [],
      "stateMutability": "nonpayable"
    },
    {
      "type": "function",
      "name": "initialize",
      "inputs": [
        {
          "name": "_committee",
          "type": "address",
          "internalType": "address"
        },
        {
          "name": "_vault",
          "type": "address",
          "internalType": "address"
        },
        {
          "name": "_limiter",
          "type": "address",
          "internalType": "address"
        }
      ],
      "outputs": [],
      "stateMutability": "nonpayable"
    },
    {
      "type": "function",
      "name": "isTransferProcessed",
      "inputs": [
        {
          "name": "nonce",
          "type": "uint64",
          "internalType": "uint64"
        }
      ],
      "outputs": [
        {
          "name": "isProcessed",
          "type": "bool",
          "internalType": "bool"
        }
      ],
      "stateMutability": "view"
    },
    {
      "type": "function",
      "name": "limiter",
      "inputs": [],
      "outputs": [
        {
          "name": "",
          "type": "address",
          "internalType": "contract IBridgeLimiter"
        }
      ],
      "stateMutability": "view"
    },
    {
      "type": "function",
      "name": "nonces",
      "inputs": [
        {
          "name": "messageType",
          "type": "uint8",
          "internalType": "uint8"
        }
      ],
      "outputs": [
        {
          "name": "nonce",
          "type": "uint64",
          "internalType": "uint64"
        }
      ],
      "stateMutability": "view"
    },
    {
      "type": "function",
      "name": "paused",
      "inputs": [],
      "outputs": [
        {
          "name": "",
          "type": "bool",
          "internalType": "bool"
        }
      ],
      "stateMutability": "view"
    },
    {
      "type": "function",
      "name": "proxiableUUID",
      "inputs": [],
      "outputs": [
        {
          "name": "",
          "type": "bytes32",
          "internalType": "bytes32"
        }
      ],
      "stateMutability": "view"
    },
    {
      "type": "function",
      "name": "transferBridgedTokensWithSignatures",
      "inputs": [
        {
          "name": "signatures",
          "type": "bytes[]",
          "internalType": "bytes[]"
        },
        {
          "name": "message",
          "type": "tuple",
          "internalType": "struct BridgeUtils.Message",
          "components": [
            {
              "name": "messageType",
              "type": "uint8",
              "internalType": "uint8"
            },
            {
              "name": "version",
              "type": "uint8",
              "internalType": "uint8"
            },
            {
              "name": "nonce",
              "type": "uint64",
              "internalType": "uint64"
            },
            {
              "name": "chainID",
              "type": "uint8",
              "internalType": "uint8"
            },
            {
              "name": "payload",
              "type": "bytes",
              "internalType": "bytes"
            }
          ]
        }
      ],
      "outputs": [],
      "stateMutability": "nonpayable"
    },
    {
      "type": "function",
      "name": "transferBridgedTokensWithSignaturesV2",
      "inputs": [
        {
          "name": "signatures",
          "type": "bytes[]",
          "internalType": "bytes[]"
        },
        {
          "name": "message",
          "type": "tuple",
          "internalType": "struct BridgeUtils.Message",
          "components": [
            {
              "name": "messageType",
              "type": "uint8",
              "internalType": "uint8"
            },
            {
              "name": "version",
              "type": "uint8",
              "internalType": "uint8"
            },
            {
              "name": "nonce",
              "type": "uint64",
              "internalType": "uint64"
            },
            {
              "name": "chainID",
              "type": "uint8",
              "internalType": "uint8"
            },
            {
              "name": "payload",
              "type": "bytes",
              "internalType": "bytes"
            }
          ]
        }
      ],
      "outputs": [],
      "stateMutability": "nonpayable"
    },
    {
      "type": "function",
      "name": "upgradeToAndCall",
      "inputs": [
        {
          "name": "newImplementation",
          "type": "address",
          "internalType": "address"
        },
        {
          "name": "data",
          "type": "bytes",
          "internalType": "bytes"
        }
      ],
      "outputs": [],
      "stateMutability": "payable"
    },
    {
      "type": "function",
      "name": "upgradeWithSignatures",
      "inputs": [
        {
          "name": "signatures",
          "type": "bytes[]",
          "internalType": "bytes[]"
        },
        {
          "name": "message",
          "type": "tuple",
          "internalType": "struct BridgeUtils.Message",
          "components": [
            {
              "name": "messageType",
              "type": "uint8",
              "internalType": "uint8"
            },
            {
              "name": "version",
              "type": "uint8",
              "internalType": "uint8"
            },
            {
              "name": "nonce",
              "type": "uint64",
              "internalType": "uint64"
            },
            {
              "name": "chainID",
              "type": "uint8",
              "internalType": "uint8"
            },
            {
              "name": "payload",
              "type": "bytes",
              "internalType": "bytes"
            }
          ]
        }
      ],
      "outputs": [],
      "stateMutability": "nonpayable"
    },
    {
      "type": "function",
      "name": "vault",
      "inputs": [],
      "outputs": [
        {
          "name": "",
          "type": "address",
          "internalType": "contract IBridgeVault"
        }
      ],
      "stateMutability": "view"
    },
    {
      "type": "event",
      "name": "ContractUpgraded",
      "inputs": [
        {
          "name": "nonce",
          "type": "uint256",
          "indexed": false,
          "internalType": "uint256"
        },
        {
          "name": "proxy",
          "type": "address",
          "indexed": false,
          "internalType": "address"
        },
        {
          "name": "implementation",
          "type": "address",
          "indexed": false,
          "internalType": "address"
        }
      ],
      "anonymous": false
    },
    {
      "type": "event",
      "name": "EmergencyOperation",
      "inputs": [
        {
          "name": "nonce",
          "type": "uint64",
          "indexed": false,
          "internalType": "uint64"
        },
        {
          "name": "paused",
          "type": "bool",
          "indexed": false,
          "internalType": "bool"
        }
      ],
      "anonymous": false
    },
    {
      "type": "event",
      "name": "Initialized",
      "inputs": [
        {
          "name": "version",
          "type": "uint64",
          "indexed": false,
          "internalType": "uint64"
        }
      ],
      "anonymous": false
    },
    {
      "type": "event",
      "name": "Paused",
      "inputs": [
        {
          "name": "account",
          "type": "address",
          "indexed": false,
          "internalType": "address"
        }
      ],
      "anonymous": false
    },
    {
      "type": "event",
      "name": "TokensClaimed",
      "inputs": [
        {
          "name": "sourceChainID",
          "type": "uint8",
          "indexed": true,
          "internalType": "uint8"
        },
        {
          "name": "nonce",
          "type": "uint64",
          "indexed": true,
          "internalType": "uint64"
        },
        {
          "name": "destinationChainID",
          "type": "uint8",
          "indexed": true,
          "internalType": "uint8"
        },
        {
          "name": "tokenID",
          "type": "uint8",
          "indexed": false,
          "internalType": "uint8"
        },
        {
          "name": "erc20AdjustedAmount",
          "type": "uint256",
          "indexed": false,
          "internalType": "uint256"
        },
        {
          "name": "senderAddress",
          "type": "bytes",
          "indexed": false,
          "internalType": "bytes"
        },
        {
          "name": "recipientAddress",
          "type": "address",
          "indexed": false,
          "internalType": "address"
        }
      ],
      "anonymous": false
    },
    {
      "type": "event",
      "name": "TokensDeposited",
      "inputs": [
        {
          "name": "sourceChainID",
          "type": "uint8",
          "indexed": true,
          "internalType": "uint8"
        },
        {
          "name": "nonce",
          "type": "uint64",
          "indexed": true,
          "internalType": "uint64"
        },
        {
          "name": "destinationChainID",
          "type": "uint8",
          "indexed": true,
          "internalType": "uint8"
        },
        {
          "name": "tokenID",
          "type": "uint8",
          "indexed": false,
          "internalType": "uint8"
        },
        {
          "name": "suiAdjustedAmount",
          "type": "uint64",
          "indexed": false,
          "internalType": "uint64"
        },
        {
          "name": "senderAddress",
          "type": "address",
          "indexed": false,
          "internalType": "address"
        },
        {
          "name": "recipientAddress",
          "type": "bytes",
          "indexed": false,
          "internalType": "bytes"
        }
      ],
      "anonymous": false
    },
    {
      "type": "event",
      "name": "Unpaused",
      "inputs": [
        {
          "name": "account",
          "type": "address",
          "indexed": false,
          "internalType": "address"
        }
      ],
      "anonymous": false
    },
    {
      "type": "event",
      "name": "Upgraded",
      "inputs": [
        {
          "name": "implementation",
          "type": "address",
          "indexed": true,
          "internalType": "address"
        }
      ],
      "anonymous": false
    },
    {
      "type": "error",
      "name": "AddressEmptyCode",
      "inputs": [
        {
          "name": "target",
          "type": "address",
          "internalType": "address"
        }
      ]
    },
    {
      "type": "error",
      "name": "AddressInsufficientBalance",
      "inputs": [
        {
          "name": "account",
          "type": "address",
          "internalType": "address"
        }
      ]
    },
    {
      "type": "error",
      "name": "ERC1967InvalidImplementation",
      "inputs": [
        {
          "name": "implementation",
          "type": "address",
          "internalType": "address"
        }
      ]
    },
    {
      "type": "error",
      "name": "ERC1967NonPayable",
      "inputs": []
    },
    {
      "type": "error",
      "name": "EnforcedPause",
      "inputs": []
    },
    {
      "type": "error",
      "name": "ExpectedPause",
      "inputs": []
    },
    {
      "type": "error",
      "name": "FailedInnerCall",
      "inputs": []
    },
    {
      "type": "error",
      "name": "InvalidInitialization",
      "inputs": []
    },
    {
      "type": "error",
      "name": "NotInitializing",
      "inputs": []
    },
    {
      "type": "error",
      "name": "ReentrancyGuardReentrantCall",
      "inputs": []
    },
    {
      "type": "error",
      "name": "SafeERC20FailedOperation",
      "inputs": [
        {
          "name": "token",
          "type": "address",
          "internalType": "address"
        }
      ]
    },
    {
      "type": "error",
      "name": "UUPSUnauthorizedCallContext",
      "inputs": []
    },
    {
      "type": "error",
      "name": "UUPSUnsupportedProxiableUUID",
      "inputs": [
        {
          "name": "slot",
          "type": "bytes32",
          "internalType": "bytes32"
        }
      ]
    }
  ],
  "bytecode": {
    "object": "0x60a0604052306080523480156200001557600080fd5b506200002062000026565b620000da565b7ff0c57e16840df040f15088dc2f81fe391c3923bec73e23a9662efc9c229c6a00805468010000000000000000900460ff1615620000775760405163f92ee8a960e01b815260040160405180910390fd5b80546001600160401b0390811614620000d75780546001600160401b0319166001600160401b0390811782556040519081527fc7f505b2f371ae2175ee4913f4499e1f2633a7b5936321eed1cdaeb6115181d29060200160405180910390a15b50565b60805161466062000104600039600081816125110152818161253a01526126ea01526146606000f3fe6080604052600436106100f35760003560e01c80639c3ecefb1161008a578063c0c53b8b11610059578063c0c53b8b146102f1578063d864e74014610311578063fa72a6d014610331578063fbfa77cf1461035157600080fd5b80639c3ecefb14610253578063a6f740f614610273578063ad3cb1cc14610293578063beb0d55c146102d157600080fd5b80635458ea9e116100c65780635458ea9e146101a35780635c975abb146101e357806374b87f67146102085780639449ebd21461024057600080fd5b8063212afaff146100f85780634f1ef2861461011a5780635035bda21461012d57806352d1902d14610180575b600080fd5b34801561010457600080fd5b50610118610113366004613a12565b610371565b005b610118610128366004613a92565b610a0d565b34801561013957600080fd5b50610163610148366004613ae1565b6001602052600090815260409020546001600160401b031681565b6040516001600160401b0390911681526020015b60405180910390f35b34801561018c57600080fd5b50610195610a2c565b604051908152602001610177565b3480156101af57600080fd5b506101d36101be366004613b1a565b60356020526000908152604090205460ff1681565b6040519015158152602001610177565b3480156101ef57600080fd5b506000805160206145eb8339815191525460ff166101d3565b34801561021457600080fd5b50603754610228906001600160a01b031681565b6040516001600160a01b039091168152602001610177565b61011861024e366004613b35565b610a49565b34801561025f57600080fd5b5061011861026e366004613c3c565b610f2a565b34801561027f57600080fd5b5061011861028e366004613c3c565b6116bd565b34801561029f57600080fd5b506102c4604051806040016040528060058152602001640352e302e360dc1b81525081565b6040516101779190613d67565b3480156102dd57600080fd5b506101186102ec366004613c3c565b611979565b3480156102fd57600080fd5b5061011861030c366004613d7a565b611e7e565b34801561031d57600080fd5b50600054610228906001600160a01b031681565b34801561033d57600080fd5b5061011861034c366004613c3c565b611fc6565b34801561035d57600080fd5b50603654610228906001600160a01b031681565b610379612303565b610381612336565b600054604080516379502c5560e01b8152905183926001600160a01b0316916379502c559160048083019260209291908290030181865afa1580156103ca573d6000803e3d6000fd5b505050506040513d601f19601f820116820180604052508101906103ee9190613dc5565b604051637320953360e01b815260ff831660048201526001600160a01b039190911690637320953390602401602060405180830381865afa158015610437573d6000803e3d6000fd5b505050506040513d601f19601f8201168201806040525081019061045b9190613de2565b6104805760405162461bcd60e51b815260040161047790613e04565b60405180910390fd5b82516020146104a15760405162461bcd60e51b815260040161047790613e49565b60008060009054906101000a90046001600160a01b03166001600160a01b03166379502c556040518163ffffffff1660e01b8152600401602060405180830381865afa1580156104f5573d6000803e3d6000fd5b505050506040513d601f19601f820116820180604052508101906105199190613dc5565b6040516321c65a3560e11b815260ff881660048201529091506001600160a01b0382169063438cb46a90602401602060405180830381865afa158015610563573d6000803e3d6000fd5b505050506040513d601f19601f820116820180604052508101906105879190613de2565b6105a35760405162461bcd60e51b815260040161047790613e94565b60405163e532488960e01b815260ff871660048201526000906001600160a01b0383169063e532488990602401602060405180830381865afa1580156105ed573d6000803e3d6000fd5b505050506040513d601f19601f820116820180604052508101906106119190613dc5565b604051636eb1769f60e11b815233600482015230602482015290915086906001600160a01b0383169063dd62ed3e90604401602060405180830381865afa158015610660573d6000803e3d6000fd5b505050506040513d601f19601f820116820180604052508101906106849190613ecb565b10156106dc5760405162461bcd60e51b815260206004820152602160248201527f5375694272696467653a20496e73756666696369656e7420616c6c6f77616e636044820152606560f81b6064820152608401610477565b6036546040516370a0823160e01b81526001600160a01b0391821660048201526000918316906370a0823190602401602060405180830381865afa158015610728573d6000803e3d6000fd5b505050506040513d601f19601f8201168201806040525081019061074c9190613ecb565b60365490915061076990839033906001600160a01b03168a61236e565b6036546040516370a0823160e01b81526001600160a01b0391821660048201526000918416906370a0823190602401602060405180830381865afa1580156107b5573d6000803e3d6000fd5b505050506040513d601f19601f820116820180604052508101906107d99190613ecb565b905060006107e78383613efa565b905060006108c1856001600160a01b031663313ce5676040518163ffffffff1660e01b8152600401602060405180830381865afa15801561082c573d6000803e3d6000fd5b505050506040513d601f19601f820116820180604052508101906108509190613f0d565b6040516371ceee4f60e01b815260ff8e1660048201526001600160a01b038916906371ceee4f90602401602060405180830381865afa158015610897573d6000803e3d6000fd5b505050506040513d601f19601f820116820180604052508101906108bb9190613f0d565b846123c8565b60008052600160209081526000805160206145ab833981519152546040805163adc879e960e01b8152905193945060ff8c16936001600160401b03909216926001600160a01b038b169263adc879e99260048082019392918290030181865afa158015610932573d6000803e3d6000fd5b505050506040513d601f19601f820116820180604052508101906109569190613f0d565b60ff167fa0f1d54820817ede8517e70a3d0a9197c015471c5360d2119b759f0359858ce68e85338f60405161098e9493929190613f2a565b60405180910390a4600080805260016020526000805160206145ab83398151915280546001600160401b0316916109c483613f66565b91906101000a8154816001600160401b0302191690836001600160401b031602179055505050505050505050610a07600160008051602061460b83398151915255565b50505050565b610a15612506565b610a1e826125ab565b610a28828261261d565b5050565b6000610a366126df565b506000805160206145cb83398151915290565b610a51612303565b610a59612336565b600054604080516379502c5560e01b8152905183926001600160a01b0316916379502c559160048083019260209291908290030181865afa158015610aa2573d6000803e3d6000fd5b505050506040513d601f19601f82011682018060405250810190610ac69190613dc5565b604051637320953360e01b815260ff831660048201526001600160a01b039190911690637320953390602401602060405180830381865afa158015610b0f573d6000803e3d6000fd5b505050506040513d601f19601f82011682018060405250810190610b339190613de2565b610b4f5760405162461bcd60e51b815260040161047790613e04565b8251602014610b705760405162461bcd60e51b815260040161047790613e49565b60365460405134916000916001600160a01b039091169083908381818185875af1925050503d8060008114610bc1576040519150601f19603f3d011682016040523d82523d6000602084013e610bc6565b606091505b5050905080610c2a5760405162461bcd60e51b815260206004820152602a60248201527f5375694272696467653a204661696c656420746f207472616e7366657220455460448201526912081d1bc81d985d5b1d60b21b6064820152608401610477565b60008060009054906101000a90046001600160a01b03166001600160a01b03166379502c556040518163ffffffff1660e01b8152600401602060405180830381865afa158015610c7e573d6000803e3d6000fd5b505050506040513d601f19601f82011682018060405250810190610ca29190613dc5565b60405163e532488960e01b815260026004820152909150600090610de5906001600160a01b0384169063e532488990602401602060405180830381865afa158015610cf1573d6000803e3d6000fd5b505050506040513d601f19601f82011682018060405250810190610d159190613dc5565b6001600160a01b031663313ce5676040518163ffffffff1660e01b8152600401602060405180830381865afa158015610d52573d6000803e3d6000fd5b505050506040513d601f19601f82011682018060405250810190610d769190613f0d565b6040516371ceee4f60e01b8152600260048201526001600160a01b038516906371ceee4f90602401602060405180830381865afa158015610dbb573d6000803e3d6000fd5b505050506040513d601f19601f82011682018060405250810190610ddf9190613f0d565b866123c8565b60008052600160209081526000805160206145ab833981519152546040805163adc879e960e01b8152905193945060ff8a16936001600160401b03909216926001600160a01b0387169263adc879e99260048082019392918290030181865afa158015610e56573d6000803e3d6000fd5b505050506040513d601f19601f82011682018060405250810190610e7a9190613f0d565b60ff167fa0f1d54820817ede8517e70a3d0a9197c015471c5360d2119b759f0359858ce6600285338d604051610eb39493929190613f2a565b60405180910390a4600080805260016020526000805160206145ab83398151915280546001600160401b031691610ee983613f66565b91906101000a8154816001600160401b0302191690836001600160401b03160217905550505050505050610a28600160008051602061460b83398151915255565b610f32612336565b80518190839060009060ff1615610f5b5760405162461bcd60e51b815260040161047790613f8c565b600054604051633c62252760e21b81526001600160a01b039091169063f188949c90610f8d9085908790600401613fd8565b60006040518083038186803b158015610fa557600080fd5b505afa158015610fb9573d6000803e3d6000fd5b5050505060ff8116156111565760008054906101000a90046001600160a01b03166001600160a01b03166379502c556040518163ffffffff1660e01b8152600401602060405180830381865afa158015611017573d6000803e3d6000fd5b505050506040513d601f19601f8201168201806040525081019061103b9190613dc5565b6001600160a01b031663adc879e96040518163ffffffff1660e01b8152600401602060405180830381865afa158015611078573d6000803e3d6000fd5b505050506040513d601f19601f8201168201806040525081019061109c9190613f0d565b60ff16836060015160ff16146110c45760405162461bcd60e51b815260040161047790614086565b825160ff166000908152600160205260409081902054908401516001600160401b039081169116146111085760405162461bcd60e51b8152600401610477906140c7565b825160ff16600090815260016020526040812080546001600160401b03169161113083613f66565b91906101000a8154816001600160401b0302191690836001600160401b03160217905550505b836060015160008054906101000a90046001600160a01b03166001600160a01b03166379502c556040518163ffffffff1660e01b8152600401602060405180830381865afa1580156111ac573d6000803e3d6000fd5b505050506040513d601f19601f820116820180604052508101906111d09190613dc5565b604051637320953360e01b815260ff831660048201526001600160a01b039190911690637320953390602401602060405180830381865afa158015611219573d6000803e3d6000fd5b505050506040513d601f19601f8201168201806040525081019061123d9190613de2565b6112595760405162461bcd60e51b815260040161047790613e04565b6040808601516001600160401b031660009081526035602052205460ff16156112945760405162461bcd60e51b8152600401610477906140fe565b846020015160ff166002146112f65760405162461bcd60e51b815260206004820152602260248201527f5375694272696467653a20496e76616c6964206d65737361676520766572736960448201526137b760f11b6064820152608401610477565b60008060009054906101000a90046001600160a01b03166001600160a01b03166379502c556040518163ffffffff1660e01b8152600401602060405180830381865afa15801561134a573d6000803e3d6000fd5b505050506040513d601f19601f8201168201806040525081019061136e9190613dc5565b9050600061137f8760800151612728565b9050816001600160a01b031663adc879e96040518163ffffffff1660e01b8152600401602060405180830381865afa1580156113bf573d6000803e3d6000fd5b505050506040513d601f19601f820116820180604052508101906113e39190613f0d565b60ff16816040015160ff161461143b5760405162461bcd60e51b815260206004820152601f60248201527f5375694272696467653a20496e76616c69642074617267657420636861696e006044820152606401610477565b60a081015160405163e532488960e01b815260ff9091166004820152600090611590906001600160a01b0385169063e5324889906024015b602060405180830381865afa158015611490573d6000803e3d6000fd5b505050506040513d601f19601f820116820180604052508101906114b49190613dc5565b6001600160a01b031663313ce5676040518163ffffffff1660e01b8152600401602060405180830381865afa1580156114f1573d6000803e3d6000fd5b505050506040513d601f19601f820116820180604052508101906115159190613f0d565b60a08401516040516371ceee4f60e01b815260ff90911660048201526001600160a01b038616906371ceee4f90602401602060405180830381865afa158015611562573d6000803e3d6000fd5b505050506040513d601f19601f820116820180604052508101906115869190613f0d565b8460c001516129fd565b90506115af88606001518360a001518460800151848660e00151612aa6565b6040808901516001600160401b031660009081526035602090815290829020805460ff19166001179055815163adc879e960e01b815291516001600160a01b0386169263adc879e99260048083019391928290030181865afa158015611619573d6000803e3d6000fd5b505050506040513d601f19601f8201168201806040525081019061163d9190613f0d565b60ff1688604001516001600160401b0316896060015160ff167f933e8377dca7a8cf67d2bf865c4d8c1c45347815760900f9d2eb5655a06943af8560a0015185876020015188608001516040516116979493929190614142565b60405180910390a450505050505050610a28600160008051602061460b83398151915255565b6116c5612336565b80518190839060029060ff1681146116ef5760405162461bcd60e51b815260040161047790613f8c565b600054604051633c62252760e21b81526001600160a01b039091169063f188949c906117219085908790600401613fd8565b60006040518083038186803b15801561173957600080fd5b505afa15801561174d573d6000803e3d6000fd5b5050505060ff8116156118ea5760008054906101000a90046001600160a01b03166001600160a01b03166379502c556040518163ffffffff1660e01b8152600401602060405180830381865afa1580156117ab573d6000803e3d6000fd5b505050506040513d601f19601f820116820180604052508101906117cf9190613dc5565b6001600160a01b031663adc879e96040518163ffffffff1660e01b8152600401602060405180830381865afa15801561180c573d6000803e3d6000fd5b505050506040513d601f19601f820116820180604052508101906118309190613f0d565b60ff16836060015160ff16146118585760405162461bcd60e51b815260040161047790614086565b825160ff166000908152600160205260409081902054908401516001600160401b0390811691161461189c5760405162461bcd60e51b8152600401610477906140c7565b825160ff16600090815260016020526040812080546001600160401b0316916118c483613f66565b91906101000a8154816001600160401b0302191690836001600160401b03160217905550505b60006118f98560800151612dca565b9050801561190e57611909612ea3565b611916565b611916612f06565b60408086015181516001600160401b03909116815282151560208201527f0838fecaac9057733ed7f9bb6e8ecfacf0d9c68d2f9b06e84f8c7f6098814bfb910160405180910390a150505050610a28600160008051602061460b83398151915255565b611981612336565b80518190839060009060ff16156119aa5760405162461bcd60e51b815260040161047790613f8c565b600054604051633c62252760e21b81526001600160a01b039091169063f188949c906119dc9085908790600401613fd8565b60006040518083038186803b1580156119f457600080fd5b505afa158015611a08573d6000803e3d6000fd5b5050505060ff811615611ba55760008054906101000a90046001600160a01b03166001600160a01b03166379502c556040518163ffffffff1660e01b8152600401602060405180830381865afa158015611a66573d6000803e3d6000fd5b505050506040513d601f19601f82011682018060405250810190611a8a9190613dc5565b6001600160a01b031663adc879e96040518163ffffffff1660e01b8152600401602060405180830381865afa158015611ac7573d6000803e3d6000fd5b505050506040513d601f19601f82011682018060405250810190611aeb9190613f0d565b60ff16836060015160ff1614611b135760405162461bcd60e51b815260040161047790614086565b825160ff166000908152600160205260409081902054908401516001600160401b03908116911614611b575760405162461bcd60e51b8152600401610477906140c7565b825160ff16600090815260016020526040812080546001600160401b031691611b7f83613f66565b91906101000a8154816001600160401b0302191690836001600160401b03160217905550505b836060015160008054906101000a90046001600160a01b03166001600160a01b03166379502c556040518163ffffffff1660e01b8152600401602060405180830381865afa158015611bfb573d6000803e3d6000fd5b505050506040513d601f19601f82011682018060405250810190611c1f9190613dc5565b604051637320953360e01b815260ff831660048201526001600160a01b039190911690637320953390602401602060405180830381865afa158015611c68573d6000803e3d6000fd5b505050506040513d601f19601f82011682018060405250810190611c8c9190613de2565b611ca85760405162461bcd60e51b815260040161047790613e04565b6040808601516001600160401b031660009081526035602052205460ff1615611ce35760405162461bcd60e51b8152600401610477906140fe565b60008060009054906101000a90046001600160a01b03166001600160a01b03166379502c556040518163ffffffff1660e01b8152600401602060405180830381865afa158015611d37573d6000803e3d6000fd5b505050506040513d601f19601f82011682018060405250810190611d5b9190613dc5565b90506000611d6c8760800151612f4c565b9050816001600160a01b031663adc879e96040518163ffffffff1660e01b8152600401602060405180830381865afa158015611dac573d6000803e3d6000fd5b505050506040513d601f19601f82011682018060405250810190611dd09190613f0d565b60ff16816040015160ff1614611e285760405162461bcd60e51b815260206004820152601f60248201527f5375694272696467653a20496e76616c69642074617267657420636861696e006044820152606401610477565b60a081015160405163e532488960e01b815260ff9091166004820152600090611e64906001600160a01b0385169063e532488990602401611473565b90506115af88606001518360a0015184608001518461320a565b7ff0c57e16840df040f15088dc2f81fe391c3923bec73e23a9662efc9c229c6a008054600160401b810460ff1615906001600160401b0316600081158015611ec35750825b90506000826001600160401b03166001148015611edf5750303b155b905081158015611eed575080155b15611f0b5760405163f92ee8a960e01b815260040160405180910390fd5b845467ffffffffffffffff191660011785558315611f3557845460ff60401b1916600160401b1785555b611f3e8861351d565b611f46613558565b603680546001600160a01b03808a166001600160a01b03199283161790925560378054928916929091169190911790558315611fbc57845460ff60401b19168555604051600181527fc7f505b2f371ae2175ee4913f4499e1f2633a7b5936321eed1cdaeb6115181d29060200160405180910390a15b5050505050505050565b611fce612336565b80518190839060059060ff168114611ff85760405162461bcd60e51b815260040161047790613f8c565b600054604051633c62252760e21b81526001600160a01b039091169063f188949c9061202a9085908790600401613fd8565b60006040518083038186803b15801561204257600080fd5b505afa158015612056573d6000803e3d6000fd5b5050505060ff8116156121f35760008054906101000a90046001600160a01b03166001600160a01b03166379502c556040518163ffffffff1660e01b8152600401602060405180830381865afa1580156120b4573d6000803e3d6000fd5b505050506040513d601f19601f820116820180604052508101906120d89190613dc5565b6001600160a01b031663adc879e96040518163ffffffff1660e01b8152600401602060405180830381865afa158015612115573d6000803e3d6000fd5b505050506040513d601f19601f820116820180604052508101906121399190613f0d565b60ff16836060015160ff16146121615760405162461bcd60e51b815260040161047790614086565b825160ff166000908152600160205260409081902054908401516001600160401b039081169116146121a55760405162461bcd60e51b8152600401610477906140c7565b825160ff16600090815260016020526040812080546001600160401b0316916121cd83613f66565b91906101000a8154816001600160401b0302191690836001600160401b03160217905550505b60008060006122058760800151613568565b919450925090506001600160a01b03831630146122785760405162461bcd60e51b815260206004820152602b60248201527f436f6d6d69747465655570677261646561626c653a20496e76616c696420707260448201526a6f7879206164647265737360a81b6064820152608401610477565b6002805460ff1916600117905561228f8282610a0d565b60408781015181516001600160401b0390911681526001600160a01b03858116602083015284168183015290517fdc69b57038334451ee12fd1742228917cea7f40dbd33cda5162e7e5754acee1c9181900360600190a1505050505050610a28600160008051602061460b83398151915255565b6000805160206145eb8339815191525460ff16156123345760405163d93c066560e01b815260040160405180910390fd5b565b60008051602061460b83398151915280546001190161236857604051633ee5aeb560e01b815260040160405180910390fd5b60029055565b604080516001600160a01b0385811660248301528416604482015260648082018490528251808303909101815260849091019091526020810180516001600160e01b03166323b872dd60e01b179052610a07908590613596565b60008260ff168460ff160361242557600082116123f75760405162461bcd60e51b81526004016104779061417d565b6001600160401b0382111561241e5760405162461bcd60e51b8152600401610477906141c6565b50806124eb565b8260ff168460ff161161247a5760405162461bcd60e51b815260206004820181905260248201527f4272696467655574696c733a20496e76616c69642053756920646563696d616c6044820152606401610477565b6000612486848661420e565b61249190600a61430b565b905061249d818461431a565b92506001600160401b038311156124c65760405162461bcd60e51b8152600401610477906141c6565b600083116124e65760405162461bcd60e51b81526004016104779061417d565b829150505b9392505050565b600160008051602061460b83398151915255565b306001600160a01b037f000000000000000000000000000000000000000000000000000000000000000016148061258d57507f00000000000000000000000000000000000000000000000000000000000000006001600160a01b03166125816000805160206145cb833981519152546001600160a01b031690565b6001600160a01b031614155b156123345760405163703e46dd60e11b815260040160405180910390fd5b60025460ff166126105760405162461bcd60e51b815260206004820152602a60248201527f436f6d6d69747465655570677261646561626c653a20556e617574686f72697a6044820152696564207570677261646560b01b6064820152608401610477565b506002805460ff19169055565b816001600160a01b03166352d1902d6040518163ffffffff1660e01b8152600401602060405180830381865afa925050508015612677575060408051601f3d908101601f1916820190925261267491810190613ecb565b60015b61269f57604051634c9c8ce360e01b81526001600160a01b0383166004820152602401610477565b6000805160206145cb83398151915281146126d057604051632a87526960e21b815260048101829052602401610477565b6126da83836135f9565b505050565b306001600160a01b037f000000000000000000000000000000000000000000000000000000000000000016146123345760405163703e46dd60e11b815260040160405180910390fd5b604080516101008101825260008082526060602083018190529282018190529181018290526080810182905260a0810182905260c0810182905260e081019190915281516047146127d65760405162461bcd60e51b815260206004820152603260248201527f4272696467655574696c733a20546f6b656e5472616e736665725061796c6f6160448201527164206d75737420626520373120627974657360701b6064820152608401610477565b6000826000815181106127eb576127eb61433c565b0160209081015160f81c915081146128155760405162461bcd60e51b815260040161047790614352565b6001600060ff83166001600160401b038111156128345761283461394f565b6040519080825280601f01601f19166020018201604052801561285e576020820181803683370190505b50905060005b8360ff168110156128d3578561287d60ff8516836143c0565b8151811061288d5761288d61433c565b602001015160f81c60f81b8282815181106128aa576128aa61433c565b60200101906001600160f81b031916908160001a905350806128cb816143d3565b915050612864565b506128de83836143ec565b9150600085836128ed81614405565b945060ff16815181106129025761290261433c565b016020015160f81c90506000868461291981614405565b955060ff168151811061292e5761292e61433c565b016020015160f81c9050601481146129585760405162461bcd60e51b815260040161047790614424565b80840187015161296882866143ec565b94506000888661297781614405565b975060ff168151811061298c5761298c61433c565b01602090810151968a016008015160409a8b01518b5161010081018d5260ff9a8b168152928301979097529488169981019990995250941660608701526001600160a01b03909316608086015260f89190911c60a08501526001600160401b0390911660c084015260e08301525090565b60008360ff168360ff1603612a1c57506001600160401b0381166124eb565b8260ff168460ff1611612a715760405162461bcd60e51b815260206004820181905260248201527f4272696467655574696c733a20496e76616c69642053756920646563696d616c6044820152606401610477565b6000612a7d848661420e565b612a8890600a61430b565b9050612a9d816001600160401b038516614492565b95945050505050565b612aae612303565b84848383612abc814261364f565b612bcb5760375460405163f7857a1960e01b815260ff808716600483015285166024820152604481018490526001600160a01b039091169063f7857a1990606401602060405180830381865afa158015612b1a573d6000803e3d6000fd5b505050506040513d601f19601f82011682018060405250810190612b3e9190613de2565b15612b5b5760405162461bcd60e51b8152600401610477906144a9565b603754604051639373d39160e01b815260ff808716600483015285166024820152604481018490526001600160a01b0390911690639373d39190606401600060405180830381600087803b158015612bb257600080fd5b505af1158015612bc6573d6000803e3d6000fd5b505050505b60008060009054906101000a90046001600160a01b03166001600160a01b03166379502c556040518163ffffffff1660e01b8152600401602060405180830381865afa158015612c1f573d6000803e3d6000fd5b505050506040513d601f19601f82011682018060405250810190612c439190613dc5565b60405163e532488960e01b815260ff8b1660048201526001600160a01b03919091169063e532488990602401602060405180830381865afa158015612c8c573d6000803e3d6000fd5b505050506040513d601f19601f82011682018060405250810190612cb09190613dc5565b90506001600160a01b038116612cd85760405162461bcd60e51b815260040161047790613e94565b60011960ff8a1601612d4f57603654604051637b1a490960e01b81526001600160a01b038a81166004830152602482018a905290911690637b1a490990604401600060405180830381600087803b158015612d3257600080fd5b505af1158015612d46573d6000803e3d6000fd5b50505050612dbe565b60365460405163276d76f960e21b81526001600160a01b0383811660048301528a81166024830152604482018a905290911690639db5dbe490606401600060405180830381600087803b158015612da557600080fd5b505af1158015612db9573d6000803e3d6000fd5b505050505b50505050505050505050565b60008151600114612e295760405162461bcd60e51b815260206004820152602360248201527f4272696467655574696c733a20496e76616c6964207061796c6f6164206c656e6044820152620cee8d60eb1b6064820152608401610477565b600082600081518110612e3e57612e3e61433c565b016020015160f81c90506001811115612e995760405162461bcd60e51b815260206004820152601c60248201527f4272696467655574696c733a20496e76616c6964206f7020636f6465000000006044820152606401610477565b60ff161592915050565b612eab612303565b6000805160206145eb833981519152805460ff191660011781557f62e78cea01bee320cd4e420270b5ea74000d11b0c9f74754ebdbfc544b05a258335b6040516001600160a01b03909116815260200160405180910390a150565b612f0e613669565b6000805160206145eb833981519152805460ff191681557f5db9ee0a495bf2e6ff9c91a7834c1ba4fdd244a5e8aa4e537bd38aeae4b073aa33612ee8565b6040805160e081018252600080825260606020830181905282840182905282018190526080820181905260a0820181905260c08201528251909114612fee5760405162461bcd60e51b815260206004820152603260248201527f4272696467655574696c733a20546f6b656e5472616e736665725061796c6f6160448201527164206d75737420626520363420627974657360701b6064820152608401610477565b6000826000815181106130035761300361433c565b0160209081015160f81c9150811461302d5760405162461bcd60e51b815260040161047790614352565b6001600060ff83166001600160401b0381111561304c5761304c61394f565b6040519080825280601f01601f191660200182016040528015613076576020820181803683370190505b50905060005b8360ff168110156130eb578561309560ff8516836143c0565b815181106130a5576130a561433c565b602001015160f81c60f81b8282815181106130c2576130c261433c565b60200101906001600160f81b031916908160001a905350806130e3816143d3565b91505061307c565b506130f683836143ec565b91506000858361310581614405565b945060ff168151811061311a5761311a61433c565b016020015160f81c90506000868461313181614405565b955060ff16815181106131465761314661433c565b016020015160f81c9050601481146131705760405162461bcd60e51b815260040161047790614424565b80840187015161318082866143ec565b94506000888661318f81614405565b975060ff16815181106131a4576131a461433c565b0160209081015199909601600801516040805160e08101825260ff998a1681529788019690965293871694860194909452941660608401526001600160a01b0390931660808301525060f89390931c60a08401526001600160401b031660c08301525090565b613212612303565b60375460405163f7857a1960e01b815260ff808716600483015285166024820152604481018390528591859184916001600160a01b03169063f7857a1990606401602060405180830381865afa158015613270573d6000803e3d6000fd5b505050506040513d601f19601f820116820180604052508101906132949190613de2565b156132b15760405162461bcd60e51b8152600401610477906144a9565b60008060009054906101000a90046001600160a01b03166001600160a01b03166379502c556040518163ffffffff1660e01b8152600401602060405180830381865afa158015613305573d6000803e3d6000fd5b505050506040513d601f19601f820116820180604052508101906133299190613dc5565b60405163e532488960e01b815260ff891660048201526001600160a01b03919091169063e532488990602401602060405180830381865afa158015613372573d6000803e3d6000fd5b505050506040513d601f19601f820116820180604052508101906133969190613dc5565b90506001600160a01b0381166133be5760405162461bcd60e51b815260040161047790613e94565b60011960ff88160161343557603654604051637b1a490960e01b81526001600160a01b0388811660048301526024820188905290911690637b1a490990604401600060405180830381600087803b15801561341857600080fd5b505af115801561342c573d6000803e3d6000fd5b505050506134a4565b60365460405163276d76f960e21b81526001600160a01b03838116600483015288811660248301526044820188905290911690639db5dbe490606401600060405180830381600087803b15801561348b57600080fd5b505af115801561349f573d6000803e3d6000fd5b505050505b603754604051639373d39160e01b815260ff808b16600483015289166024820152604481018790526001600160a01b0390911690639373d39190606401600060405180830381600087803b1580156134fb57600080fd5b505af115801561350f573d6000803e3d6000fd5b505050505050505050505050565b613525613699565b61352d6136e2565b613536816136f2565b600080546001600160a01b0319166001600160a01b0392909216919091179055565b613560613699565b6123346136fa565b600080606060008060008680602001905181019061358691906144ef565b9199909850909650945050505050565b60006135ab6001600160a01b0384168361371b565b905080516000141580156135d05750808060200190518101906135ce9190613de2565b155b156126da57604051635274afe760e01b81526001600160a01b0384166004820152602401610477565b61360282613729565b6040516001600160a01b038316907fbc7cd75a20ee27fd9adebab32041f755214dbc6bffa90cc0225b39da2e5c2d3b90600090a2805115613647576126da828261378e565b610a286137fb565b600061365e83620151806143c0565b821190505b92915050565b6000805160206145eb8339815191525460ff1661233457604051638dfc202b60e01b815260040160405180910390fd5b7ff0c57e16840df040f15088dc2f81fe391c3923bec73e23a9662efc9c229c6a0054600160401b900460ff1661233457604051631afcd79f60e31b815260040160405180910390fd5b6136ea613699565b61233461381a565b613536613699565b613702613699565b6000805160206145eb833981519152805460ff19169055565b60606124eb83836000613822565b806001600160a01b03163b60000361375f57604051634c9c8ce360e01b81526001600160a01b0382166004820152602401610477565b6000805160206145cb83398151915280546001600160a01b0319166001600160a01b0392909216919091179055565b6060600080846001600160a01b0316846040516137ab919061458e565b600060405180830381855af49150503d80600081146137e6576040519150601f19603f3d011682016040523d82523d6000602084013e6137eb565b606091505b5091509150612a9d8583836138bf565b34156123345760405163b398979f60e01b815260040160405180910390fd5b6124f2613699565b6060814710156138475760405163cd78605960e01b8152306004820152602401610477565b600080856001600160a01b03168486604051613863919061458e565b60006040518083038185875af1925050503d80600081146138a0576040519150601f19603f3d011682016040523d82523d6000602084013e6138a5565b606091505b50915091506138b58683836138bf565b9695505050505050565b6060826138d4576138cf82613914565b6124eb565b81511580156138eb57506001600160a01b0384163b155b1561241e57604051639996b31560e01b81526001600160a01b0385166004820152602401610477565b8051156139245780518082602001fd5b604051630a12f52160e11b815260040160405180910390fd5b50565b60ff8116811461393d57600080fd5b634e487b7160e01b600052604160045260246000fd5b604051601f8201601f191681016001600160401b038111828210171561398d5761398d61394f565b604052919050565b60006001600160401b038211156139ae576139ae61394f565b50601f01601f191660200190565b600082601f8301126139cd57600080fd5b81356139e06139db82613995565b613965565b8181528460208386010111156139f557600080fd5b816020850160208301376000918101602001919091529392505050565b60008060008060808587031215613a2857600080fd5b8435613a3381613940565b93506020850135925060408501356001600160401b03811115613a5557600080fd5b613a61878288016139bc565b9250506060850135613a7281613940565b939692955090935050565b6001600160a01b038116811461393d57600080fd5b60008060408385031215613aa557600080fd5b8235613ab081613a7d565b915060208301356001600160401b03811115613acb57600080fd5b613ad7858286016139bc565b9150509250929050565b600060208284031215613af357600080fd5b81356124eb81613940565b80356001600160401b0381168114613b1557600080fd5b919050565b600060208284031215613b2c57600080fd5b6124eb82613afe565b60008060408385031215613b4857600080fd5b82356001600160401b03811115613b5e57600080fd5b613b6a858286016139bc565b9250506020830135613b7b81613940565b809150509250929050565b600060a08284031215613b9857600080fd5b60405160a081016001600160401b038282108183111715613bbb57613bbb61394f565b8160405282935084359150613bcf82613940565b908252602084013590613be182613940565b816020840152613bf360408601613afe565b604084015260608501359150613c0882613940565b8160608401526080850135915080821115613c2257600080fd5b50613c2f858286016139bc565b6080830152505092915050565b60008060408385031215613c4f57600080fd5b82356001600160401b0380821115613c6657600080fd5b818501915085601f830112613c7a57600080fd5b8135602082821115613c8e57613c8e61394f565b8160051b613c9d828201613965565b928352848101820192828101908a851115613cb757600080fd5b83870192505b84831015613cf357823586811115613cd55760008081fd5b613ce38c86838b01016139bc565b8352509183019190830190613cbd565b9750505086013592505080821115613d0a57600080fd5b50613ad785828601613b86565b60005b83811015613d32578181015183820152602001613d1a565b50506000910152565b60008151808452613d53816020860160208601613d17565b601f01601f19169290920160200192915050565b6020815260006124eb6020830184613d3b565b600080600060608486031215613d8f57600080fd5b8335613d9a81613a7d565b92506020840135613daa81613a7d565b91506040840135613dba81613a7d565b809150509250925092565b600060208284031215613dd757600080fd5b81516124eb81613a7d565b600060208284031215613df457600080fd5b815180151581146124eb57600080fd5b60208082526025908201527f5375694272696467653a2054617267657420636861696e206e6f7420737570706040820152641bdc9d195960da1b606082015260800190565b6020808252602b908201527f5375694272696467653a20496e76616c696420726563697069656e742061646460408201526a0e4cae6e640d8cadccee8d60ab1b606082015260800190565b6020808252601c908201527f5375694272696467653a20556e737570706f7274656420746f6b656e00000000604082015260600190565b600060208284031215613edd57600080fd5b5051919050565b634e487b7160e01b600052601160045260246000fd5b8181038181111561366357613663613ee4565b600060208284031215613f1f57600080fd5b81516124eb81613940565b60ff851681526001600160401b03841660208201526001600160a01b03831660408201526080606082018190526000906138b590830184613d3b565b60006001600160401b03808316818103613f8257613f82613ee4565b6001019392505050565b6020808252602c908201527f4d65737361676556657269666965723a206d65737361676520646f6573206e6f60408201526b74206d61746368207479706560a01b606082015260800190565b6000604082016040835280855180835260608501915060608160051b8601019250602080880160005b8381101561402f57605f1988870301855261401d868351613d3b565b95509382019390820190600101614001565b50508584038187015260ff875116845260ff8188015116818501525050506001600160401b03604085015116604082015260ff6060850151166060820152608084015160a060808301526138b560a0830182613d3b565b60208082526021908201527f4d65737361676556657269666965723a20496e76616c696420636861696e20496040820152601160fa1b606082015260800190565b6020808252601e908201527f4d65737361676556657269666965723a20496e76616c6964206e6f6e63650000604082015260600190565b60208082526024908201527f5375694272696467653a204d65737361676520616c72656164792070726f63656040820152631cdcd95960e21b606082015260800190565b60ff851681528360208201526080604082015260006141646080830185613d3b565b905060018060a01b038316606083015295945050505050565b60208082526029908201527f4272696467655574696c733a20496e73756666696369656e7420616d6f756e74604082015268081c1c9bdd9a59195960ba1b606082015260800190565b60208082526028908201527f4272696467655574696c733a20416d6f756e7420746f6f206c6172676520666f6040820152671c881d5a5b9d0d8d60c21b606082015260800190565b60ff828116828216039081111561366357613663613ee4565b600181815b8085111561426257816000190482111561424857614248613ee4565b8085161561425557918102915b93841c939080029061422c565b509250929050565b60008261427957506001613663565b8161428657506000613663565b816001811461429c57600281146142a6576142c2565b6001915050613663565b60ff8411156142b7576142b7613ee4565b50506001821b613663565b5060208310610133831016604e8410600b84101617156142e5575081810a613663565b6142ef8383614227565b806000190482111561430357614303613ee4565b029392505050565b60006124eb60ff84168361426a565b60008261433757634e487b7160e01b600052601260045260246000fd5b500490565b634e487b7160e01b600052603260045260246000fd5b60208082526048908201527f4272696467655574696c733a20496e76616c69642073656e646572206164647260408201527f657373206c656e6774682c205375692061646472657373206d75737420626520606082015267333220627974657360c01b608082015260a00190565b8082018082111561366357613663613ee4565b6000600182016143e5576143e5613ee4565b5060010190565b60ff818116838216019081111561366357613663613ee4565b600060ff821660ff810361441b5761441b613ee4565b60010192915050565b60208082526048908201527f4272696467655574696c733a20496e76616c696420746172676574206164647260408201527f657373206c656e6774682c2045564d2061646472657373206d75737420626520606082015267323020627974657360c01b608082015260a00190565b808202811582820484141761366357613663613ee4565b60208082526026908201527f5375694272696467653a20416d6f756e74206578636565647320627269646765604082015265081b1a5b5a5d60d21b606082015260800190565b60008060006060848603121561450457600080fd5b835161450f81613a7d565b602085015190935061452081613a7d565b60408501519092506001600160401b0381111561453c57600080fd5b8401601f8101861361454d57600080fd5b805161455b6139db82613995565b81815287602083850101111561457057600080fd5b614581826020830160208601613d17565b8093505050509250925092565b600082516145a0818460208701613d17565b919091019291505056fea6eef7e35abe7026729641147f7915573c7e97b47efa546f5f6e3230263bcb49360894a13ba1a3210667c828492db98dca3e2076cc3735a920a3ca505d382bbccd5ed15c6e187e77e9aee88184c21f4f2182ab5827cb3b7e07fbedcd63f033009b779b17422d0df92223018b32b4d1fa46e071723d6817e2486d003becc55f00a2646970667358221220bdb9cfbd82cc24a5be07838a95dbd0bf6a3167bd5d2e65aea80b6a25ed60556d64736f6c63430008140033",
    "linkReferences": {}
  },
  "methodIdentifiers": {
    "UPGRADE_INTERFACE_VERSION()": "ad3cb1cc",
    "bridgeERC20(uint8,uint256,bytes,uint8)": "212afaff",
    "bridgeETH(bytes,uint8)": "9449ebd2",
    "committee()": "d864e740",
    "executeEmergencyOpWithSignatures(bytes[],(uint8,uint8,uint64,uint8,bytes))": "a6f740f6",
    "initialize(address,address,address)": "c0c53b8b",
    "isTransferProcessed(uint64)": "5458ea9e",
    "limiter()": "74b87f67",
    "nonces(uint8)": "5035bda2",
    "paused()": "5c975abb",
    "proxiableUUID()": "52d1902d",
    "transferBridgedTokensWithSignatures(bytes[],(uint8,uint8,uint64,uint8,bytes))": "beb0d55c",
    "transferBridgedTokensWithSignaturesV2(bytes[],(uint8,uint8,uint64,uint8,bytes))": "9c3ecefb",
    "upgradeToAndCall(address,bytes)": "4f1ef286",
    "upgradeWithSignatures(bytes[],(uint8,uint8,uint64,uint8,bytes))": "fa72a6d0",
    "vault()": "fbfa77cf"
  },
  "storageLayout": {
    "storage": [
      {
        "astId": 2336,
        "contract": "contracts/SuiBridgeV2.sol:SuiBridgeV2",
        "label": "committee",
        "offset": 0,
        "slot": "0",
        "type": "t_contract(IBridgeCommittee)863"
      },
      {
        "astId": 2340,
        "contract": "contracts/SuiBridgeV2.sol:SuiBridgeV2",
        "label": "nonces",
        "offset": 0,
        "slot": "1",
        "type": "t_mapping(t_uint8,t_uint64)"
      },
      {
        "astId": 2209,
        "contract": "contracts/SuiBridgeV2.sol:SuiBridgeV2",
        "label": "_upgradeAuthorized",
        "offset": 0,
        "slot": "2",
        "type": "t_bool"
      },
      {
        "astId": 2213,
        "contract": "contracts/SuiBridgeV2.sol:SuiBridgeV2",
        "label": "__gap",
        "offset": 0,
        "slot": "3",
        "type": "t_array(t_uint256)50_storage"
      },
      {
        "astId": 21,
        "contract": "contracts/SuiBridgeV2.sol:SuiBridgeV2",
        "label": "isTransferProcessed",
        "offset": 0,
        "slot": "53",
        "type": "t_mapping(t_uint64,t_bool)"
      },
      {
        "astId": 24,
        "contract": "contracts/SuiBridgeV2.sol:SuiBridgeV2",
        "label": "vault",
        "offset": 0,
        "slot": "54",
        "type": "t_contract(IBridgeVault)1036"
      },
      {
        "astId": 27,
        "contract": "contracts/SuiBridgeV2.sol:SuiBridgeV2",
        "label": "limiter",
        "offset": 0,
        "slot": "55",
        "type": "t_contract(IBridgeLimiter)1014"
      }
    ],
    "types": {
      "t_array(t_uint256)50_storage": {
        "encoding": "inplace",
        "label": "uint256[50]",
        "numberOfBytes": "1600",
        "base": "t_uint256"
      },
      "t_bool": {
        "encoding": "inplace",
        "label": "bool",
        "numberOfBytes": "1"
      },
      "t_contract(IBridgeCommittee)863": {
        "encoding": "inplace",
        "label": "contract IBridgeCommittee",
        "numberOfBytes": "20"
      },
      "t_contract(IBridgeLimiter)1014": {
        "encoding": "inplace",
        "label": "contract IBridgeLimiter",
        "numberOfBytes": "20"
      },
      "t_contract(IBridgeVault)1036": {
        "encoding": "inplace",
        "label": "contract IBridgeVault",
        "numberOfBytes": "20"
      },
      "t_mapping(t_uint64,t_bool)": {
        "encoding": "mapping",
        "key": "t_uint64",
        "label": "mapping(uint64 => bool)",
        "numberOfBytes": "32",
        "value": "t_bool"
      },
      "t_mapping(t_uint8,t_uint64)": {
        "encoding": "mapping",
        "key": "t_uint8",
        "label": "mapping(uint8 => uint64)",
        "numberOfBytes": "32",
        "value": "t_uint64"
      },
      "t_uint256": {
        "encoding": "inplace",
        "label": "uint256",
        "numberOfBytes": "32"
      },
      "t_uint64": {
        "encoding": "inplace",
        "label": "uint64",
        "numberOfBytes": "8"
      },
      "t_uint8": {
        "encoding": "inplace",
        "label": "uint8",
        "numberOfBytes": "1"
      }
    }
  },
  "id": 1
}